:020000040800F2
:100000000008002045010008CD1900084519000826
:10001000C919000859070008D9230008000000008A
:10002000000000000000000000000000411C00086B
:100030008714000800000000551A0008591D000828
:100040005F0100085F0100085F0100085F01000810
:100050005F0100085F0100085F0100085F01000800
:100060005F0100085F0100085F0100085F010008F0
:100070005F0100085F0100085F0100085F010008E0
:100080005F0100085F0100085F0100085F010008D0
:10009000A92300085F0100085F0100085F01000854
:1000A0005F0100085F0100085F0100085F010008B0
:1000B0005F0100085F0100085F0100085F010008A0
:1000C0005F0100085F0100085F0100085F01000890
:1000D0005F010008F51E00085F0100085F010008CD
:1000E0005F0100085F0100085F0100085F01000870
:1000F0005F0100085F0100085F0100085F01000860
:100100005F0100085F0100085F0100085F0100084F
:100110005F0100085F010008BD1D00085F010008C5
:100120005F0100085F0100085F0100085F0100082F
:10013000DFF80CD000F05EF9004800472D250008DC
:10014000000800200648804706480047FEE7FEE713
:10015000FEE7FEE7FEE7FEE7FEE7FEE7FEE7FEE777
:100160005D1D000831010008F0B480EA0102D40FDF
:100170004200B2EB410F02D20246084611464A0045
:1001800042D0C30DDDB2C1F3C752AD1A202D35DA0E
:10019000C1F3160141F4000204B15242C5F1200638
:1001A00002FA06F12A411044B3EBD05F23D0C4B168
:1001B000012DA0EBC35009DCF0BC4FF0004202EA75
:1001C000C352DBB200F5000000F0E5B8400000F1DA
:1001D000807000EBC350A0F1807040EAD1704900FC
:1001E00009E0490841EAC071A0EBC35000F50000E6
:1001F000400800EBC350F0BC00F0C4B861420122DB
:1002000002EB4101001BF6E7F0BC704781F00041B2
:10021000AAE780F00040A7E780EA010210B502F0EB
:100220000043400022D04A001FD0010E01EB1261B2
:10023000C0F35600C2F3560240F4000042F400023C
:10024000A0FB022000047F39140400D0401C50EAB7
:10025000124001D44000491EC2B20C0604EBD0107B
:10026000401C4008802A02D003E0002010BD20F08E
:100270000100002900DA0020184310BD30B480EAE4
:10028000010202F0004530F0004221F0004013D09E
:1002900090B1C30DD40DC2F31601C0F31600E41AD9
:1002A00041F4000140F400027D34914201D3641C0A
:1002B00000E04900002C02DA30BC002070474FF407
:1002C00000000023914201D3891A034340084FEAFA
:1002D0004101F7D151B1914202D14FF0004105E007
:1002E00002D24FF0010101E06FF0010103EBC450B5
:1002F000284430BC00F046B8C10F80EAE0700844E2
:10030000CA079623002100F046B896230022114622
:1003100000F041B800F0004220F00040C10DC0F3F1
:10032000160040F400007F2901DA0020704796296A
:1003300003DCC1F19601C84001E096398840002AEB
:10034000F4D04042704720F00040C10DC0F31600C9
:1003500040F400007F2901DA00207047962903DC71
:10036000C1F19601C8407047963988407047000037
:10037000002801DBC0F10040002901DBC1F1004190
:10038000884270470029A8BF7047401C490008BF39
:1003900020F00100704710B4B0FA80FC00FA0CF0B5
:1003A00050EA010404BF10BC704749B1CCF12004ED
:1003B00021FA04F411FA0CF118BF0121214308437A
:1003C000A3EB0C01CB1D4FEA00614FEA102042BFA6
:1003D000002010BC704700EBC35010440029A4BF9C
:1003E00010BC7047401C490008BF20F0010010BC41
:1003F00070470000064C074D06E0E06840F001033E
:1004000094E8070098471034AC42F6D3FFF794FE07
:100410007C2900089C29000870B58C1810F8015B35
:1004200015F0070301D110F8013B2A1106D110F88D
:10043000012B03E010F8016B01F8016B5B1EF9D191
:100440002B0705D40023521E0DD401F8013BFAE717
:1004500010F8013BCB1A921C03E013F8015B01F882
:10046000015B521EF9D5A142D8D3002070BD000017
:1004700000B587B00121480601F038FB234800F0A1
:10048000C1F904A800F0F9FB00208DF817008DF8E1
:1004900018008DF819008DF81A008DF8160001204B
:1004A0008DF81B0000208DF8130002208DF8140039
:1004B00004208DF81500ADF8100000208DF8120012
:1004C00004A9124800F0D7FA01208DF80D00002091
:1004D000ADF80800ADF80000ADF80200ADF804007A
:1004E000ADF806008DF80B008DF80A0001208DF89C
:1004F0000C0000208DF80A00684600F09FF90122E8
:100500000221024800F0AEFA07B000BD00640040CE
:1005100000B58BB00121084601F0D8FA124800F06E
:10052000DFFE684600F0A2FF002008904FF48050E4
:1005300009902C200390002002900C48019000208C
:100540000A900790802005900948009000200690AE
:1005500004906946044800F069FF0121024800F058
:10056000B3FE0BB000BD000058000240CF030020D6
:100570000438014010B5184801F0BDFF174801F0DC
:10058000BAFF174801F0B7FF164801F0B4FF16484C
:1005900001F0B1FF154801F0AEFF154801F0ABFFC7
:1005A000144801F0A8FF144801F0A5FF134801F01A
:1005B000A2FF134801F09FFF124801F09CFF124870
:1005C00001F099FF114801F096FF01214FF4EA1064
:1005D00001F056F810BD0000000000200C000020C3
:1005E0001800002024000020300000203C000020E3
:1005F0004800002054000020600000206C00002013
:100600007800002084000020900000209C00002042
:1006100008B54FF4A06001F013FA14208DF8000023
:1006200001208DF8030000208DF8010003208DF8D3
:100630000200684601F0CCF936208DF80000012058
:100640008DF803008DF8010000208DF80200684647
:1006500001F0BEF925208DF8000001208DF8010081
:100660008DF802008DF80300684601F0B1F908BD6D
:1006700010B50648816B88470548816B8847054857
:10068000816B88470448816B884710BDF0010020CA
:10069000B4010020780100203C0100200EB50121AA
:1006A000102001F023FA684601F01AFC0020ADF892
:1006B0000600ADF802004FF47A70ADF80400472050
:1006C000ADF800006946084801F0B8FB0121064872
:1006D00001F08EFB01221146034801F0A6FB012127
:1006E000014801F07FFB0EBD001000401FB5012145
:1006F000880301F01BFA174801F03AFD684601F043
:1007000046FE4FF4E13000900020ADF80C000C20C4
:10071000ADF80A000020ADF80800ADF80600ADF80D
:10072000040069460B4801F0C1FD0122402109483F
:1007300001F014FD012240F22441064801F090FD31
:100740000121044801F0FEFC1021024801F0E2FC06
:100750001FBD00000038014000BFFEE7B1F5007F7B
:100760003AD00FDC202928D006DC01291CD004292E
:100770001DD0082940D11DE0402921D0B1F5807F4E
:100780003AD126E0B1F5004F31D006DCB1F5806FEB
:1007900025D0B1F5006F2FD124E0B1F5803F12D004
:1007A000B1F5003F28D111E0154A826025E008220A
:1007B000C26022E01022C2601FE0082202611CE039
:1007C0001022026119E00822426016E01022426005
:1007D00013E00422426010E0042242600DE0042293
:1007E00042600AE0002282610422426005E00022A9
:1007F00082610422426000E000BF00BF7047000039
:100800000101010010B504460B48844209D10121C1
:10081000480601F07BF900214FF0007001F076F9F5
:1008200008E00121880601F071F900214FF0806095
:1008300001F06CF910BD00000064004010B500210B
:10084000837A012202FA03F13D4A126842F0010262
:100850003B4B1A603A4A1C3212688A43384B1C33AD
:100860001A60027BCAB9364A0C3212688A43344B8A
:100870000C331A604288C38842EA0343304A40324C
:10088000847A42F834300288838842EA03432C4A4F
:100890004032847A02EBC4025360027B012A19D1F0
:1008A000274A0C3212680A43254B0C331A604288DF
:1008B000038842EA0343224A4032847A42F83430C1
:1008C000C288838842EA03431D4A4032847A02EB9D
:1008D000C4025360C27A3AB9194A121D12688A4397
:1008E000174B1B1D1A6006E0154A121D12680A43B9
:1008F000134B1B1D1A60028932B9114A1432126857
:100900008A430F4B14331A600289012A06D10C4A1C
:10091000143212680A430A4B14331A60427B012ACC
:1009200006D1074A1C3212680A43054B1C331A6071
:10093000034A126822F00102014B1A6010BD000048
:100940000066004070B504460D46002660692840E8
:10095000002871D0B5F5807F5CD010DC082D35D033
:1009600006DC012D20D0022D24D0042D72D127E0E9
:10097000102D31D0202D35D0402D6BD138E0B5F57C
:10098000004F60D009DCB5F5007F49D0B5F5806F28
:100990004CD0B5F5006F5DD14FE0B5F5803F2DD05F
:1009A000B5F5003F56D12FE0A0682D4900F006FCB8
:1009B000064651E0E068032100F000FC06464BE0EB
:1009C000E068082100F0FAFB064645E0E0681021E7
:1009D00000F0F4FB06463FE02069032100F0EEFB47
:1009E000064639E02069082100F0E8FB064633E0BE
:1009F0002069102100F0E2FB06462DE06068082126
:100A000000F0DCFB064627E06068102100F0D6FB12
:100A1000064621E0A069012100F0D0FB06461BE05C
:100A2000A069022100F0CAFB064615E0A069042176
:100A300000F0C4FB06460FE00FE0A069702100F053
:100A4000BDFB064608E06068042100F0B7FB0646DF
:100A500002E0FFE7002600BF00E00026304670BD40
:100A6000010101001AB143690B43436102E043698C
:100A70008B434361704730B5024600200023146861
:100A800024F002041460146844F00104146000E0CF
:100A90005B1C546804F001041CB94FF6FF74A342B8
:100AA000F6D1546804F001040CB900206CE08C7994
:100AB000012C04D1146844F08004146003E014682D
:100AC00024F080041460CC79012C04D1146844F023
:100AD0004004146003E0146824F0400414600C7AAD
:100AE000012C04D1146844F02004146003E014685D
:100AF00024F0200414604C7A012C04D1146844F0D2
:100B00001004146003E0146824F0100414608C7A5C
:100B1000012C04D1146844F00804146003E0146844
:100B200024F008041460CC7A012C04D1146844F039
:100B30000404146003E0146824F0040414608C7846
:100B4000A407CD7844EA05640D7944EA05444D795B
:100B500044EA05540D886D1E2C43D461146824F0BA
:100B600001041460002300E05B1C546804F00104DD
:100B70001CB14FF6FF74A342F6D1546804F001048F
:100B80000CB1002000E0012030BD10B500F5D87395
:100B900003EB01131B6803F004031372137A53B9B8
:100BA00000F5D87303EB01131B6840F2FF7404EAED
:100BB0005353136009E000F5D87303EB01131B686E
:100BC0006FF0604404EAD303536000F5D87303EB7D
:100BD00001131B6803F00203537200F5D87303EB93
:100BE00001135B6803F00F03937200F5D87303EBF6
:100BF00001135B681B0AD37400F5D87303EB011370
:100C00009B68D37200F5D87303EB01139B681C0A31
:100C1000147300F5D87303EB01139B681C0C547319
:100C200000F5D87303EB01139B681B0E937300F55B
:100C3000D87303EB0113DB68D37300F5D87303EBB0
:100C40000113DB681C0A147400F5D87303EB01135D
:100C5000DB681C0C547400F5D87303EB0113DB68DC
:100C60001B0E937421B9C36843F02003C36003E0F3
:100C7000036943F02003036110BD00218171C1713C
:100C8000017241728172C1728170C1700321017160
:100C90000221417101210180704710B502460020F8
:100CA000936803F08063B3F1806F00D110E0936824
:100CB00003F00063B3F1006F01D1012008E09368F5
:100CC00003F08053B3F1805F01D1022000E00420E3
:100CD000042874D002F5C07303EB00131B6803F003
:100CE000010402F5C07303EB00131C600B7A7BB99F
:100CF0004B7A0C8843EA445302F5C07404EB0014A9
:100D00002468234302F5C07404EB0014236010E050
:100D10000B7A4C6843EAC4034C7A234302F5C0744F
:100D200004EB00142468234302F5C07404EB0014A0
:100D300023608B7A03F00F038B7202F5C07303EB11
:100D400000135B6823F00F0402F5C07303EB00137C
:100D50005C6002F5C07303EB00135B688C7A23437D
:100D600002F5C07404EB001463608B7B1C064B7BA4
:100D700044EA03440B7B44EA0323CC7A234302F581
:100D8000C07404EB0014A3608B7C1C064B7C44EA0B
:100D900003440B7C44EA0323CC7B234302F5C07459
:100DA00004EB0014E36002F5C07303EB00131B684F
:100DB00043F0010402F5C07303EB00131C6010BD87
:100DC000F8B5D44BD4480268D4480168D4480068C8
:100DD00000F0BAFDCF49B1F90000FFF78DFAD14913
:100DE000C860CC49B1F90200FFF786FACE49C86065
:100DF000C849B1F90400FFF77FFACC49C860C5497A
:100E0000B1F90600FFF778FAC949C860C948C06B54
:100E1000C449C862C848C06BC349C862C748C06BF0
:100E2000C249C862C648C06BC149C862BD48416B6F
:100E30008847BD48416B8847BC48416B8847BC48E0
:100E4000416B8847B749086B0021FFF791FA02D23E
:100E5000B448006B03E0B348006B80F000400446E8
:100E6000FFF771FAB7490880AF49086B0021FFF717
:100E70007FFA02D2AC48006B03E0AB48006B80F015
:100E800000400446FFF75FFAAE494880A749086B67
:100E90000021FFF76DFA02D2A448006B03E0A348DB
:100EA000006B80F000400446FFF74DFAA5498880AA
:100EB0009F49086B0021FFF75BFA02D29C48006B48
:100EC00003E09B48006B80F000400446FFF73BFACC
:100ED0009C49C880084600884988084499498988FF
:100EE00008449849C9880844974908809748007879
:100EF00001287DD1964800880988884264DA9248A2
:100F00000088FFF702FA064691480088FFF7FDF9CE
:100F100007468448016B3846FFF77EF9054631469F
:100F2000FFF7ACF90446FFF7F5F900B289490880EC
:100F300085480088FFF7E9F9064685480088FFF7ED
:100F4000E4F907467848016B3846FFF765F905462E
:100F50003146FFF793F90446FFF7DCF900B27D490B
:100F6000488079480088FFF7D0F90646784800881D
:100F7000FFF7CBF907466D48016B3846FFF74CF990
:100F800005463146FFF77AF90446FFF7C3F900B288
:100F9000704988806C480088FFF7B7F906466C48AE
:100FA0000088FFF7B2F907466148016B3846FFF742
:100FB00033F905463146FFF761F90446FFF7AAF910
:100FC00000B26449C88095E05649086BFFF7A2F962
:100FD00000B2604908805449086BFFF79BF900B2E2
:100FE0005C4948805149086BFFF794F900B200E072
:100FF00009E0584988804E49086BFFF78BF900B229
:101000005449C88076E051480078002872D1504891
:1010100000884D490988884250DA4B480088FFF71C
:1010200074F905463F49086B4B49FFF7F5F806464A
:101030002946FFF723F90446FFF76CF900B245494A
:10104000088041480088FFF760F905463649086B7B
:101050004149FFF7E1F806462946FFF70FF9044634
:10106000FFF758F900B23B49488037480088FFF73E
:101070004CF905462D49086B3749FFF7CDF8064670
:101080002946FFF7FBF80446FFF744F900B231495F
:1010900088802D480088FFF738F905462449086BF9
:1010A0002D49FFF7B9F806462946FFF7E7F8044649
:1010B000FFF730F900B22749C8801BE01949086BD7
:1010C000FFF728F900B2234908801749086BFFF79A
:1010D00021F900B21F4948801449086BFFF71AF93B
:1010E00000B21C4988801249086BFFF713F900B25F
:1010F0001849C8801748B0F9060000901548B0F9A3
:101100000430B0F90220B0F90010144801F0A9F938
:10111000F8BD000032010020240100202001002041
:101120001C0100203C01002078010020B4010020B7
:10113000F001002088020020CC02002010030020D3
:10114000540300200A010020080100203001002083
:1011500058020020120100200080BB4500640040BE
:1011600010B5044610480068A0F2012030B10128F3
:1011700009D002280CD0032814D10EE021460B48D8
:1011800000F082F90EE02146094800F07DF909E0FF
:101190002146084800F078F904E02146064800F0AE
:1011A00073F900BF00BF10BD740200208802002048
:1011B000CC0200201003002054030020024600202F
:1011C00002EA01030BB1012000E00020704700009B
:1011D00010B52E480088401C2C4908802C480088F7
:1011E000401C2B4908802B480169884701F002FA0E
:1011F00029480078012817D124480088B0F5FA7FE3
:1012000008DD2648006880F4C0702449086000208A
:101210001E4908801D480088052190FBF1F201FB62
:10122000120008B1FFF7CCFD194800884FF47A711D
:1012300090FBF1F201FB120088B9194800881949A6
:101240000880002016490880164800880A2803DA1A
:1012500000201549087002E00120134908700C486D
:101260000088B0F5FA6F02D10020094908800948CA
:10127000006841F27071884206D107480078022860
:1012800002D101200449087010BD00002C0100208B
:101290002E0100202C0200202A0100200C08014011
:1012A0005C0200205E0200203001002000F080512E
:1012B00011B10349086001E002494860704700002D
:1012C000040402400000024021B1026842F0010221
:1012D000026004E002684FF6FE731A400260704735
:1012E00001684FF6FE72114001600021016041600B
:1012F0008160C1604B49884208D14A490839496830
:1013000041F00F01474A083A51608AE045491431DB
:10131000884208D143490839496841F0F001414AFF
:10132000083A51607DE03F492831884208D13D4963
:101330000839496841F470613A4A083A516070E0EE
:1013400038493C31884208D136490839496841F466
:101350007041344A083A516063E032495031884262
:1013600008D130490839496841F470212D4A083ABA
:10137000516056E02B496431884208D12949083927
:10138000496841F47001274A083A516049E025490B
:101390007831884208D123490839496841F07061A1
:1013A000204A083A51603CE01F49884206D1011F9B
:1013B000096841F00F01021F116032E01A4914312F
:1013C000884208D11849091F096841F0F001164AFE
:1013D000121F116025E014492831884208D11249B2
:1013E000091F096841F470610F4A121F116018E06B
:1013F0000D493C31884208D10B49091F096841F465
:101400007041094A121F11600BE0074950318842B0
:1014100007D10549091F096841F47021024A121FCA
:1014200011607047080002400804024010B5002215
:10143000026847F6F0739A430C6A8B6823430C6981
:1014400023434C6923438C692343CC6923434C6A6F
:1014500023438C6A23431A430260CB6843600B68C2
:1014600083604B68C36010BD41607047002101601C
:1014700041608160C160016141618161C16101625E
:1014800041628162704770472DE9F05F04460D4666
:101490000026002720686060287BE97A40EA012066
:1014A000206020686168401AE060E0682C4988424A
:1014B00007DAA06B401CA063E06800F50050E06113
:1014C0000EE0E06841F64C51884207DDA06B401EFB
:1014D000A063E068A0F50050E06101E0E068E06131
:1014E0002168A06B01EB4030A060A16B4FF4B47297
:1014F00001FB02F0FEF700FF82462168A269881A0C
:10150000FEF7FAFE83461749FEF786FE81464FF046
:101510008C41FEF7B3FE80465146FEF725FE20645F
:10152000E269207D411C217504F1200141F8202051
:10153000207D062801D100202075002605E004F159
:10154000200050F826000744761C062EF7DB062004
:1015500097FBF0F84046FEF7CFFEE063BDE8F09F52
:10156000B4E2FFFF0000B4432DE9F041024600253C
:101570000026002000230024002791F803C00CF06F
:101580000F0591F803C00CF0100CBCF1000F03D054
:1015900091F802C04CEA050591F800C0BCF1000FBB
:1015A00031D0146800202BE04FF0010C0CFA00F34E
:1015B000B1F800C00CEA03069E4220D183004FF030
:1015C0000F0C0CFA03F7BC4305FA03FC4CEA0404C5
:1015D00091F803C0BCF1280F06D14FF0010C0CFAB2
:1015E00000FCC2F814C00AE091F803C0BCF1480F37
:1015F00005D14FF0010C0CFA00FCC2F810C0401CE1
:101600000828D1D31460B1F800C0BCF1FF0F34DD5D
:10161000546800202EE000F1080C4FF0010808FA91
:101620000CF3B1F800C00CEA03069E4221D18300FE
:101630004FF00F0C0CFA03F7BC4305FA03FC4CEA1D
:10164000040491F803C0BCF1280F05D100F1080C87
:1016500008FA0CF8C2F8148091F803C0BCF1480FE6
:1016600007D100F1080C4FF0010808FA0CF8C2F895
:101670001080401C0828CED35460BDE8F0810000E3
:10168000F0B50A46002300240021002500F00046A2
:10169000B6F1004F02D11D4EF16901E01B4E716899
:1016A000C0F3034583B200F44016B6F5401F08D1DD
:1016B00021F07061154E766826F07066134F7E60DB
:1016C00012E000F48016B6F5801F06D1032606FA54
:1016D00005F4A14341F0706106E0460D360103FABE
:1016E00006F6B14341F0706122B1460D360103FAAE
:1016F00006F6314300F00046B6F1004F02D1034E2A
:10170000F16101E0014E7160F0BD00000000014098
:101710000246002093680B400BB1012000E000203E
:101720007047000030B5034613B94FF6FF7030BD67
:1017300009E013F8014B82EA0400C0B2054D35F808
:10174000100080EA22220800A1F10101F1D1104627
:10175000EDE700007A27000810B56D48407898B191
:101760006C48407880B100206B4908606B48007875
:101770004042FEF7C1FD6A4908606A480078FEF7FA
:10178000C4FD69490860C1E062484078E8B1674833
:101790004078D0B161480078444204EBD4714810DD
:1017A000FEF7AAFD5C4908605C480078444204EBFF
:1017B000D4714810FEF7A0FD5949086059480078D7
:1017C000FEF7A3FD58490860A0E05848407898B15A
:1017D0005748407880B1514800784042FEF78CFD70
:1017E0004D49086000204E4908604E480078FEF7D9
:1017F0008CFD4D49086089E04D484078E0B14D4886
:101800004078C8B145480078444204EBD471481090
:10181000FEF772FD404908604048047804EBD4713B
:101820004810FEF769FD3E4908603E480078FEF723
:101830006CFD3D49086069E03E48407890B13E4803
:10184000407878B100203449086034480078FEF7C9
:101850005CFD3349086033480078FEF756FD324995
:10186000086053E034484078D8B134484078C0B17B
:101870002A48047804EBD4714810FEF73DFD264950
:1018800008602648047804EBD4714810FEF734FD54
:101890002349086023480078FEF737FD2249086095
:1018A00034E02648407890B12548407878B11B480C
:1018B0000078FEF72AFD18490860002018490860E2
:1018C00018480078FEF721FD174908601EE01C4803
:1018D0004078D8B10E484078C0B11048047804EB85
:1018E000D4714810FEF708FD0B4908600B480078DA
:1018F000444204EBD4714810FEF7FEFC084908602E
:1019000008480078FEF701FD0749086010BD000097
:10191000A8000020B40000201C01002028010020A5
:10192000200100202901002024010020C000002007
:10193000CC000020D8000020E4000020F0000020AF
:10194000FC00002000BFFEE72DE9F04705460F46EA
:1019500016461C4685F0004A39465046FEF756FCAE
:1019600081463146FEF700FC8046FEF7D3FC00B20C
:10197000208039462846FEF749FC81463146FEF76D
:10198000F3FB8046FEF7C6FC00B2608085F0004A9B
:1019900039465046FEF7E8FB81463146FEF7E4FB48
:1019A0008046FEF7B7FC00B2A08039462846FEF715
:1019B000DBFB81463146FEF7D7FB8046FEF7AAFCEB
:1019C00000B2E080BDE8F08700BFFEE7704700008E
:1019D00070B5002100230F22C47804B3154C24688D
:1019E00004F4E064C4F5E064210AC1F10403CA40D0
:1019F000447804FA03F184781440214309010E4C21
:101A00000678A155047804F01F050124AC40057840
:101A10006D11AD0005F1E025C5F8004109E004783D
:101A200004F01F050124AC40044D0678761145F8FA
:101A3000264070BD0CED00E000E400E080E100E035
:101A400002490143024A1160704700000000FA0594
:101A50000CED00E0704770B50446E16AE068FEF7FF
:101A6000D5FB6062616A2068FEF7D6FBA061616AFF
:101A70006068FEF7D1FB0546E169FEF775FBE061A2
:101A8000D4E90901FEF7C2FB0546A168FEF7C4FBD5
:101A9000206204F11C00216900F0CFFCD4E90601AA
:101AA000FEF762FB0546216AFEF75EFB206304F148
:101AB0003000616900F0C1FC616AA16270BD002163
:101AC0008161C161016201637047000029B1064A6A
:101AD00052690243044B5A6104E0034A526982434B
:101AE000014B5A61704700000010024029B1064ABC
:101AF000D2690243044BDA6104E0034AD2698243AB
:101B0000014BDA61704700000010024029B1064A1B
:101B100012690243044B1A6104E0034A12698243CA
:101B2000014B1A61704700000010024029B1064ABB
:101B300092690243044B9A6104E0034A926982432A
:101B4000014B9A61704700000010024029B1064A1B
:101B5000D2680243044BDA6004E0034AD26882434D
:101B6000014BDA60704700000010024030B50021E0
:101B70000022002400232D4D6D6805F00C0121B1D9
:101B8000042905D0082923D105E0294D056022E06C
:101B9000274D05601FE0254D6D6805F47012234D3B
:101BA0006D6805F48034022505EB92421CB9214D85
:101BB000554305600BE01D4D6D6805F400351DB102
:101BC0001C4D5543056002E0194D5543056002E088
:101BD000174D056000BF00BF144D6D6805F0F001A2
:101BE0000909154D6B5C0568DD4045600F4D6D685A
:101BF00005F4E061090A104D6B5C4568DD408560C5
:101C00000A4D6D6805F46051C90A0B4D6B5C45685F
:101C1000DD40C560054D6D6805F44041890B074DF9
:101C20006B5CC568B5FBF3F5056130BD0010024083
:101C300000127A0000093D006002002070020020BE
:101C4000704770B505460C4629896868A2689047B8
:101C500048B92078042802DD0120607006E0207871
:101C6000401C207002E000202070607070BD10B534
:101C700000F002F810BD00000CB5002001900090AB
:101C80003348006840F480303149086000BF304874
:101C9000006800F4003000900198401C019000980A
:101CA00018B90198B0F5A06FF1D12948006800F487
:101CB000003010B10120009001E000200090009859
:101CC000012843D12348006840F0100021490860F2
:101CD0000846006820F0030008600846006840F0ED
:101CE000020008601A484068194948600846406880
:101CF00048600846406840F4806048600846406894
:101D000020F47C1048600846406840F4E8104860C1
:101D10000846006840F08070086000BF0C4800680A
:101D200000F000700028F9D00948406820F0030056
:101D3000074948600846406840F00200486000BF1C
:101D40000348406800F00C000828F9D10CBD0000E1
:101D500000100240002002407047000010B51348F8
:101D6000006840F0010011490860084640681049C9
:101D700008400E494860084600680E4908400B4973
:101D800008600846006820F4802008600846406823
:101D900020F4FE0048604FF41F008860FFF767FFE3
:101DA0004FF000600449086010BD000000100240C0
:101DB0000000FFF8FFFFF6FE08ED00E010B501217E
:101DC000074800F021F848B10121054800F00DF85E
:101DD0000121034800F006F8FFF7FAF910BD0000F2
:101DE00000100040CA4302827047CA430282704713
:101DF00021B1028842F00102028004E002884FF61D
:101E0000FE731A400280704730B50246002000235E
:101E10000024158A05EA0103958905EA010413B136
:101E20000CB1012000E0002030BD1AB183890B43C2
:101E3000838102E083898B4383817047002202887B
:101E40001D4B98420ED01D4B98420BD0B0F1804FE5
:101E500008D01B4B984205D01A4B984202D01A4B1F
:101E6000984204D14FF68F731A404B881A43174B90
:101E7000984207D0164B984204D04FF6FF431A40C1
:101E8000CB881A4302808B8883850B8803850A4B95
:101E900098420BD0094B984208D00E4B984205D07F
:101EA0000D4B984202D00D4B984201D10B7A03861C
:101EB0000123838270470000002C01400034014060
:101EC0000004004000080040000C004000100040EA
:101ED000001400400040014000440140004801401F
:101EE0004FF6FF71818000210180C1804180017225
:101EF0007047000070B540F224417C4800F086F93C
:101F000001287CD140F22441784800F00CF9774850
:101F100000F038FA00217648FFF7D6F974485838AF
:101F2000C06D00286CD17348407901287FD1714879
:101F30000078A5287BD12F216E4800F04FFA0028A9
:101F400075D06D480088401C6B4908806948807ACC
:101F50006A49C8706748407A88706648007A487055
:101F60006448C07908700868FEF7EDF964490860B4
:101F70006048C07A5F49097B40EA01206049888057
:101F80005C4890F829005D49C8705A4890F82800CC
:101F90008870584890F827004870564890F82600F6
:101FA0000870084600685649C1F823005148007C73
:101FB0005249C8704F48C07B88704E48807B48703B
:101FC0004C48407B0870084600684D49C1F806003F
:101FD0004848007D4949C8704648C07C88704548DB
:101FE000807C48704348407C08700846006844493B
:101FF000C1F80A000846D0F80610424801E074E033
:1020000015E0FEF73BF905463F49FEF705F90446A2
:10201000FEF799F93D490880394AD2F80610D2F8FE
:102020000A00FEF7F9F83649C1F80E0049E03048D9
:102030005838C06D90B92F48407902280ED12D48EC
:102040000078A5280AD10C212A4800F0C7F928B148
:1020500029480088401C2849088032E02448583824
:10206000C06D70BB2348407903282AD121480078ED
:10207000A52826D120480088401C1F4908801D48FB
:10208000807A1E49C8701B48407A88701948007AC7
:1020900048701848C0790870084600681C490860F4
:1020A0001448807B1549C8701248407B88701148DD
:1020B000007B48700F48C07A0870084600681449D1
:1020C00048604FF4C020FFF7F1F800BF08485838C7
:1020D000806D00F001000028F8D12C210448FFF7A2
:1020E000C3F901210248FFF7EFF870BD0038014045
:1020F00058000240CF0300205C0200205402002060
:10210000980300200000964200C05A455802002063
:10211000BF03002001F40072B2F5007F00D100BFC0
:10212000CA430280704710B50022002340F66A14AB
:10213000A14200D100BF0A1201249440A3B2DC43A3
:10214000048010BD21B1828942F40052828104E0F2
:1021500082894DF6FF731A40828170471AB1838AD3
:102160000B43838202E0838A8B43838270470000A3
:1021700010B504462048844209D101218803FFF7A5
:10218000E5FC00214FF48040FFF7E0FC32E01B4803
:10219000844209D101214804FFF7B8FC00214FF423
:1021A0000030FFF7B3FC25E01548844209D1012136
:1021B0008804FFF7ABFC00214FF48020FFF7A6FC5A
:1021C00018E01048844209D10121C804FFF79EFCA1
:1021D00000214FF40020FFF799FC0BE00A488442ED
:1021E00008D101210805FFF791FC00214FF4801070
:1021F000FFF78CFC10BD0000003801400044004097
:1022000000480040004C00400050004070B50246BD
:10221000002400230025002040F66A16B14200D1B8
:1022200000BFC1F3421501F01F03012606FA03F3B4
:10223000012D02D19689334006E0022D02D1168A83
:10224000334001E0968A33400C12012606FA04F46A
:102250001688344013B10CB1012000E0002070BD9D
:10226000F0B50346002400260025002040F66A173A
:10227000B94200D100BF1846C1F3421401F01F0655
:10228000012707FA06F5012C01D10C3004E0022CDD
:1022900001D1103000E014301AB107682F430760F5
:1022A00002E00768AF430760F0BD00002DE9F0478A
:1022B00086B005460E460024A24600BFA146002770
:1022C000B08900B100BF2F462C8A4CF6FF70044045
:1022D000F08804432C82AC894EF6F3100440B08899
:1022E00031890843718908430443AC81AC8A4FF6B5
:1022F000FF400440B0890443AC8201A8FFF736FCDC
:102300001F48874202D1DDF810A001E0DDF80CA0E3
:10231000A88900F4004040B10AEBCA0000EB0A10A3
:1023200031684900B0FBF1F807E00AEBCA0000EBA6
:102330000A1031688900B0FBF1F86420B8FBF0F0B6
:1023400004012009642101FB1089A88900F40040E0
:1023500040B1322000EBC900B0FBF1F000F0070003
:10236000044308E0322000EB09106421B0FBF1F0D7
:1023700000F00F0004432C8106B0BDE8F087000098
:102380000038014001468888C0F3080070474FF4C8
:102390001651016000218180C18001810C214181A1
:1023A000002181817047000010B502210848FEF726
:1023B000C9FA58B102210648FEF7D0F9054A0021B2
:1023C0000348FEF7E2FB0348FEF7CAFE10BD00001B
:1023D000006400407402002000BFFEE770B50546AF
:1023E0000C4600260DB1022C01D8002070BDA11EA4
:1023F000094802882846FFF795F90646F1B2A01E63
:10240000285C814206D1601E285CB0EB162F01D1FA
:102410000120EBE70020E9E75002002002E008C8B5
:10242000121F08C1002AFAD170477047002001E04E
:1024300001C1121F002AFBD1704770B504460D463A
:1024400029462068FDF794FF00D2256085F00046FC
:1024500030462168FDF78CFF02D285F000402060F5
:1024600070BD2DE9F04186B080460C4615461E46EB
:102470000C9F08208DF80E0000208DF80C008DF8C0
:102480000D004FF400700190200A8DF80F008DF8B8
:102490001040290A8DF811108DF81250310A8DF86C
:1024A00013108DF81460390A8DF815108DF8167018
:1024B00001A94046FEF7F1FB06B0BDE8F0810146F8
:1024C0004FF4FA524A434FF0E0235A6100229A61D6
:1024D00001221A6100BF4FF0E022106900F00102F2
:1024E0001AB100F48032002AF5D000224FF0E02328
:1024F0001A619A61704738B50446E07A182803D10A
:1025000001210846FFF712FB01212068FFF70EFBAF
:10251000E07A8DF80300A07A8DF802002089ADF8EA
:10252000000069466068FFF71FF838BD00F049F801
:1025300005E003480078012801D1FFF70DF9F8E71D
:102540002A0100200146D1E90002904201DD01206C
:1025500070470020FCE770B504466068002816DD6F
:102560002068401C2060D4E90001884201DD6068D9
:1025700020606068FDF7C0FE05462068FDF7BCFEE0
:1025800006462946FDF77AFEA060A06870BD0020CF
:10259000FCE7000010B5044841F27071C269904731
:1025A00001488169884710BD2C020020002202608A
:1025B00041607047002101607047016070474160D1
:1025C000704710B54FF47A70FFF779FFFFF7E2FF1D
:1025D000FEF74EF8FEF71CF8FDF7CCFFFEF786F885
:1025E000FDF796FFFEF744F8FDF742FFFEF756F8B9
:1025F00010BD000010B510491048FFF722FB10492C
:102600001048FFF71EFB10491048FFF71AFB10494E
:102610001048FFF716FB10491048FFF712FB10494E
:102620001048FFF70EFB10491048FFF70AFB10494E
:102630001048FFF706FB10BDA80000200000002096
:10264000B40000200C000020C00000201800002072
:10265000CC00002024000020D80000203000002002
:10266000E40000203C000020F00000204800002092
:10267000FC00002054000020FF005EBCE2613FDD52
:1026800083C29C7E20A3FD1F419DC3217FFCA240ED
:102690001E5F01E3BD3E6082DC237D9FC1421CFEC4
:1026A000A0E1BF5D0380DE3C62BEE0025CDF8163CF
:1026B0003D7C22C09E1D43A1FF4618FAA427799BAA
:1026C000C584DA3866E5BB5907DB856739BAE406A5
:1026D000581947A5FB7826C49A653BD987045AB890
:1026E000E6A7F91B45C6987A24F8A6441A99C72587
:1026F0007B3A6486D85B05E7B98CD2306EEDB35176
:102700000F4E10F2AC2F7193CD114FADF3702ECC54
:1027100092D38D6F31B2EC0E50AFF1134DCE90725B
:102720002C6D33D18F0C52B0EE326C8ED0530DEF36
:10273000B1F0AE4C1291CF2D73CA947628ABF51739
:10274000490856B4EA6937D58B5709EBB536688A1C
:10275000D495CB2977F4AA4816E9B7550B88D63417
:102760006A2B7597C94A14F6A8742AC896154BA9FE
:10277000F7B6E80A54D7896B350000008911122397
:102780009B322446AD573665BF74488CC19D5AAF05
:10279000D3BE6CCAE5DB7EE9F7F8811008019333FC
:1027A0001A22A5562C47B7753E64C99C408DDBBFE5
:1027B00052AEEDDA64CBFFF976E802218B301002DD
:1027C00099132667AF763444BD554AADC3BC588EC5
:1027D000D19F6EEBE7FA7CC8F5D983310A209112BC
:1027E0001803A7772E66B5543C45CBBD42ACD99EA5
:1027F000508FEFFB66EAFDD874C904428D53166111
:102800009F702004A9153227BB364CCEC5DF5EED84
:10281000D7FC6888E1997AABF3BA85520C4397717B
:102820001E60A1142805B3373A26CDDE44CFDFFD64
:1028300056ECE9986089FBBB72AA06638F7214405C
:102840009D512225AB343006B9174EEFC7FE5CCC44
:10285000D5DD6AA9E3B8788AF19B87730E6295503B
:102860001C41A3352A24B1163807CFFF46EEDDDC24
:1028700054CDEBB962A8F99A708B088481951AA798
:1028800093B62CC2A5D33EE1B7F04008C919522B2C
:10289000DB3A644EED5F766DFF7C899400859BB7D3
:1028A00012A6ADD224C3BFF136E0C1184809D33B0C
:1028B0005A2AE55E6C4FF77D7E6C0AA583B41886B4
:1028C00091972EE3A7F23CC0B5D14229CB38500AEC
:1028D000D91B666FEF7E744CFD5D8BB502A4999693
:1028E0001087AFF326E2BDD034C1C3394A28D11ACC
:1028F000580BE77F6E6EF55C7C4D0CC685D71EE5E8
:1029000097F42880A1913AA3B3B2444ACD5B5669AB
:10291000DF78600CE91D722FFB3E8DD604C79FF552
:1029200016E4A9902081BBB332A2C55A4C4BD7798B
:102930005E68E11C680DF33F7A2E0EE787F61CC433
:1029400095D52AA1A3B03882B193466BCF7A54486B
:10295000DD59622DEB3C700EF91F8FF706E69DD412
:1029600014C5ABB122A0B9923083C77B4E6AD5584B
:102970005C49E33D6A2CF11E780F00009C29000899
:102980000000002074020000180400083C2A00081F
:10299000740200208C0500002C2400084240151809
:1029A00001401044034810141001408A400C1A01E1
:1029B0001869249A40241A040C4204CA080C2948B5
:1029C000690C293C42081A0C549A010C6C02031839
:1029D00024117C0403040C991812807B0310183B0B
:1029E00001037713431C14081117394709520C01CE
:1029F000126B204104541A1702D201D348431480A9
:102A0000BB44041C803B4513571A1B08BF0409B480
:102A10003CA113AD251B0857041ABB041AB5041AB0
:102A2000BF041A450483FFFF83E8032D010203045A
:0C2A30000400090006070809020406085B
:0400000508000131BD
:00000001FF
