:020000040800F2
:10000000F00D0020C1010008E1230008051D0008D3
:10001000DD230008E50C0008B734000800000000EC
:10002000000000000000000000000000F1260008B1
:100030000F19000800000000712400083929000889
:10004000DB010008DB010008DB010008DB01000820
:10005000DB010008DB010008DB01000811190008C2
:10006000DB010008DB010008DB010008DB01000800
:10007000DB010008DB010008DB010008DB010008F0
:10008000DB010008DB010008DB010008DB010008E0
:10009000E90C0008DB010008DB010008DB010008B7
:1000A000DB010008DB010008DB010008DB010008C0
:1000B000DB010008DB010008DB010008DB010008B0
:1000C000DB010008DB010008DB010008DB010008A0
:1000D000DB010008412F0008DB010008B12F0008F8
:1000E000DB010008DB010008DB010008DB01000880
:1000F000DB010008DB010008DB010008DB01000870
:10010000DB010008DB010008DB010008DB0100085F
:10011000DB010008DB010008A5290008DB0100085D
:10012000DB010008DB010008DB010008DB0100083F
:10013000DB010008DB010008DB010008DB0100082F
:10014000190D0008DB010008DB010008DB010008D5
:10015000DB010008DB010008DB010008DB0100080F
:10016000DB010008DB010008DB010008DB010008FF
:10017000DB010008DB010008DB010008DB010008EF
:10018000DB010008DB010008DB010008DB010008DF
:10019000DB010008DB010008DB010008DB010008CF
:1001A0000000000000000000DB010008DFF80CD0B8
:1001B00000F018F800480047F53B0008F00D00205B
:1001C0000648804706480047FEE7FEE7FEE7FEE7F1
:1001D000FEE7FEE7FEE7FEE7FEE7FEE73D29000853
:1001E000AD010008064C074D06E0E06840F0010351
:1001F00094E8070098471034AC42F6D3FFF7DAFFD3
:10020000544400087444000870B58C1810F8015B61
:1002100015F0070301D110F8013B2A1106D110F89F
:10022000012B03E010F8016B01F8016B5B1EF9D1A3
:100230002B0705D40023521E0DD401F8013BFAE729
:1002400010F8013BCB1A921C03E013F8015B01F894
:10025000015B521EF9D5A142D8D3002070BD000029
:1002600000B587B001214FF0C06002F08DF947481A
:1002700000F0BEFD04A800F0F6FF00208DF8170086
:100280008DF818008DF819008DF81A008DF81600F9
:1002900001208DF81B0000208DF8130008208DF838
:1002A000140003208DF81500ADF8100000208DF823
:1002B000120004A9354800F0D4FE01208DF80D008D
:1002C0000020ADF80800ADF80000ADF80200ADF870
:1002D0000400ADF806008DF80B008DF80A0001202F
:1002E0008DF80C0000208DF80A00684600F09CFD97
:1002F000274800F07DFD04A800F0B5FF00208DF830
:1003000017008DF818008DF819008DF81A008DF877
:10031000160001208DF81B0000208DF81300082026
:100320008DF8140003208DF81500ADF810000020A2
:100330008DF8120004A9164800F093FE01208DF8F4
:100340000D000020ADF80800ADF80000ADF8020087
:10035000ADF80400ADF806008DF80B008DF80A002A
:1003600001208DF80C000E208DF80A00684600F080
:100370005BFD01220221054800F06AFE01220221F4
:10038000034800F065FE07B000BD000000640040B7
:100390000068004000B58FB001214FF4C00002F0AA
:1003A000E3F82B4801F0BEF9684601F09FFA4FF4DC
:1003B000807009904FF440300A90122004904FF062
:1003C00000600090002003900B900C902148029058
:1003D00000200D9008904FF4806006901E48019018
:1003E00000200E90079005906946194801F050FAD8
:1003F0000121174801F08AF9184801F093F968467D
:1004000001F074FA002009904FF480300A90962091
:1004100004904FF000600090002003900B900C902F
:100420000F48029000200D9008904FF480600690D5
:100430000C48019000200E900790059069460748EF
:1004400001F026FA0121054801F060F90FB000BD66
:10045000406402402C070020041001402860024044
:1004600020090020044800401CB5012140F2FF1083
:1004700002F07AF801208DF8040000208DF80600C3
:100480004FF48040009000208DF8070003208DF885
:1004900005006946FE4801F02DFB01208DF804009F
:1004A00000208DF806008020009000208DF80700C5
:1004B00003208DF805006946F64801F01BFB8021FA
:1004C000F34801F08DFB4FF48041F24801F086FBC8
:1004D0004FF41070009002208DF8040003208DF876
:1004E000050000208DF8060001208DF80700694600
:1004F000E94801F0FFFA09221146E74801F042FB02
:1005000009220621E44801F03DFB4FF440600090D1
:1005100002208DF8040003208DF8050000208DF8DE
:10052000060001208DF807006946DB4801F0E2FA79
:1005300002220A21D84801F025FB02220B21D648CD
:1005400001F020FB02208DF8040000208DF8060049
:100550008020009001208DF8070000208DF8050014
:100560006946CE4801F0C6FA07221146CB4801F091
:1005700009FB02208DF8040000208DF806004FF4DE
:100580004070009001208DF8070003208DF80500D1
:100590006946C34801F0AEFA07220821C04801F0BD
:1005A000F1FA07220921BE4801F0ECFA02208DF889
:1005B000040000208DF806000320009001208DF833
:1005C000070003208DF805006946B54801F092FA4E
:1005D00009220021B24801F0D5FA09220121B048D0
:1005E00001F0D0FA02208DF8040000208DF80600FA
:1005F0004FF44050009001208DF8070003208DF843
:1006000005006946A54801F075FA09220C21A348A6
:1006100001F0B8FA09220D21A04801F0B3FA012037
:100620008DF8040000208DF8060040200090002086
:100630008DF8070003208DF805006946944801F005
:1006400059FA4021924801F0CBFA02208DF80400BB
:1006500000208DF806004FF46070009001208DF8A6
:10066000070003208DF805006946894801F042FA29
:1006700005220721864801F085FA052208218448D1
:1006800001F080FA05220921814801F07BFA00205F
:100690008DF804008DF80600022000908DF8070008
:1006A00003208DF8050069467A4801F023FA0120FD
:1006B0008DF8040000208DF806000C20009000202A
:1006C0008DF8070003208DF805006946714801F098
:1006D00011FA04216F4801F083FA8420009002206F
:1006E0008DF8040003208DF8050000208DF8060029
:1006F00001208DF8070069466A4801F0FBF90322E2
:100700000721684801F03EFA03220221654801F002
:1007100039FA0120009002208DF8040003208DF8A2
:10072000050000208DF8060001208DF807006946BD
:100730005D4801F0DFF9012200215B4801F022FA57
:100740000620009001208DF8040000208DF806009E
:1007500002208DF805006946534801F0CBF90221CB
:10076000514801F03DFA04214F4801F037FA0820C2
:10077000009002208DF8040003208DF80500002071
:100780008DF8060001208DF807006946464801F003
:10079000B1F901220321444801F0F4F960200090EE
:1007A00001208DF8040000208DF8060002208DF84D
:1007B000050069463B4801F09DF92021394801F0C8
:1007C0000FFA4021374801F009FA4FF480500090A9
:1007D00002208DF8040003208DF8050000208DF81C
:1007E000060001208DF8070069462D4801F082F9C6
:1007F00002220C212A4801F0C5F94FF4C0400090B4
:1008000001208DF8040000208DF8060002208DF8EC
:1008100005006946224801F06DF94FF40051204867
:1008200001F0DEF94FF480411D4801F0D7F94FF493
:100830000070009000208DF8040001208DF8070062
:100840006946184801F056F91020009000208DF8F4
:10085000040001208DF807006946134801F04AF9A9
:100860000320009000208DF8040001208DF807007F
:1008700069460E4801F03EF90320009000208DF8F3
:10088000040001208DF807006946044810E00000CC
:100890000014024000100240001C0240000402400C
:1008A000000C02400020024000000240000802400C
:1008B00001F020F91CBD08B54FF4A06001F0CEFD99
:1008C00025208DF8000001208DF8030000208DF810
:1008D00001008DF80200684601F084FD14208DF8B7
:1008E000000001208DF803008DF801008DF8020052
:1008F000684601F077FD684601F074FD07208DF829
:10090000000001208DF8030002208DF80100002076
:100910008DF80200684601F065FD36208DF8000074
:1009200001208DF803008DF8010000208DF80200F1
:10093000684601F057FD08BD10B50948016D8847AC
:100940000848016D88470848016D88470748016DD0
:1009500088470748016D88470648016D884710BDE4
:1009600088000020DC0000203001002084010020ED
:10097000D80100202C02002000B589B001217D2083
:1009800001F002FE0121022001F01EFE06A802F085
:10099000BBFA0020ADF82000ADF81A0040F2E730B5
:1009A00007905320ADF8180006A99A4802F06AFA99
:1009B0004FF0FF3007905320ADF818000020ADF83D
:1009C0002000ADF81A000121934801F0FFFF06A9AD
:1009D000914802F057FA01218F4802F009F806A861
:1009E00002F092FA0020ADF82000ADF81A0040F6AF
:1009F000C31007905320ADF8180006A9874802F0ED
:100A000041FA7020ADF804000220ADF8100001207A
:100A1000ADF806004FF47A70039001A97F4802F008
:100A20002DF901A97D4802F0E1F808217B4802F088
:100A300077F90821794802F017F90121774801F088
:100A4000C5FF0121754801F0D3FF4FF47A70734957
:100A500034310860091D086006A802F055FA00202C
:100A6000ADF82000ADF81A0040F6C31007905320EF
:100A7000ADF8180006A96A4802F004FA7020ADF833
:100A800004000220ADF810000120ADF806004FF47C
:100A90007A70039001A9624802F0F0F801A9604859
:100AA00002F0A4F808215E4802F03AF908215C48F7
:100AB00002F0DAF801215A4801F088FF0121584874
:100AC00001F096FF4FF47A70554934310860091DE2
:100AD0000860544801F0A8FF06A802F015FA0020AB
:100AE000ADF82000ADF81A004FF4FA60079040F21C
:100AF0008F60ADF8180000208DF8220006A9494843
:100B000002F0C0F97020ADF804000220ADF810002A
:100B10000120ADF80600322003900020ADF8160049
:100B20000220ADF812000020ADF80800ADF8140066
:100B300001A93C4802F002F901A93A4802F058F92B
:100B40000821384802F04AF90821364802F08CF9A9
:100B50000121344801F03AFF0121324801F054FFED
:100B60000121304801F044FF32202E493C31086019
:100B70008220091D086006A802F0C6F90020ADF821
:100B80002000ADF81A0040F2EE2007905320ADF897
:100B9000180006A94FF0804002F074F906A9224817
:100BA00002F070F97020ADF804000220ADF81000DA
:100BB0000120ADF806000020039001A91A4802F0B8
:100BC00015F801A94FF0804002F010F801A94FF08C
:100BD000804002F00DF90821134802F045F8082181
:100BE000C80602F041F80821C80602F03DF90121CB
:100BF000880701F0EBFE01210B4801F0E7FE01211F
:100C0000880701F0F5FE0121074801F0F1FE09B067
:100C100000BD00000010004000140040001800401B
:100C2000000C004000040140000800401FB50121F5
:100C3000880401F0A9FC0121102001F0C5FC264820
:100C400002F0F6FA684602F02AFC244800900020E0
:100C5000ADF80C000420ADF80A000002ADF8080061
:100C60000020ADF80600ADF8040069461A4802F00D
:100C7000A7FB01224021184802F0D0FA012240F2DD
:100C80002441154802F076FB0121134802F0BAFA1C
:100C9000134802F0CDFA684602F001FC4FF4E1304F
:100CA00000900020ADF80C000C20ADF80A000020E8
:100CB000ADF80800ADF80600ADF804006946084834
:100CC00002F07EFB0121064802F09CFA4021024816
:100CD00002F080FA1FBD000000100140A086010054
:100CE0000048004000BFFEE710B50221084800F0B0
:100CF0001FF958B10221064800F026F8054A0021E4
:100D0000034800F038FA034800F032FC10BD000040
:100D1000006400407407002010B50221084800F06C
:100D200007F958B10221064800F00EF8054A0021E3
:100D3000034800F020FA034800F01AFC10BD000040
:100D40000068004074070020B1F5007F3AD00FDC46
:100D5000202928D006DC01291CD004291DD008290F
:100D600040D11DE0402921D0B1F5807F3AD126E065
:100D7000B1F5004F31D006DCB1F5806F25D0B1F56B
:100D8000006F2FD124E0B1F5803F12D0B1F5003FC4
:100D900028D111E0154A826025E00822C26022E0D5
:100DA0001022C2601FE0082202611CE010220261D2
:100DB00019E00822426016E01022426013E004228B
:100DC000426010E0042242600DE0042242600AE02A
:100DD000002282610422426005E000228261042236
:100DE000426000E000BF00BF704700000101010049
:100DF00010B504460B48844209D10121480601F090
:100E0000D3FB00214FF0007001F0CEFB08E0012180
:100E1000880601F0C9FB00214FF0806001F0C4FB9F
:100E200010BD00000064004010B50021837A01224B
:100E300002FA03F13D4A126842F001023B4B1A608C
:100E40003A4A1C3212688A43384B1C331A60027BC0
:100E5000CAB9364A0C3212688A43344B0C331A60D2
:100E60004288C38842EA0343304A4032847A42F8D7
:100E700034300288838842EA03432C4A4032847A21
:100E800002EBC4025360027B012A19D1274A0C32BB
:100E900012680A43254B0C331A604288038842EAE1
:100EA0000343224A4032847A42F83430C28883882D
:100EB00042EA03431D4A4032847A02EBC402536083
:100EC000C27A3AB9194A121D12688A43174B1B1D80
:100ED0001A6006E0154A121D12680A43134B1B1DC7
:100EE0001A60028932B9114A143212688A430F4BD0
:100EF00014331A600289012A06D10C4A143212688E
:100F00000A430A4B14331A60427B012A06D1074A6E
:100F10001C3212680A43054B1C331A60034A1268DC
:100F200022F00102014B1A6010BD00000066004073
:100F300070B504460D46002660692840002871D02F
:100F4000B5F5807F5CD010DC082D35D006DC012D96
:100F500020D0022D24D0042D72D127E0102D31D0C5
:100F6000202D35D0402D6BD138E0B5F5004F60D045
:100F700009DCB5F5007F49D0B5F5806F4CD0B5F5EB
:100F8000006F5DD14FE0B5F5803F2DD0B5F5003F46
:100F900056D12FE0A0682D4900F062FB064651E0D3
:100FA000E068032100F05CFB06464BE0E0680821A6
:100FB00000F056FB064645E0E068102100F050FBCB
:100FC00006463FE02069032100F04AFB064639E06F
:100FD0002069082100F044FB064633E02069102117
:100FE00000F03EFB06462DE06068082100F038FB6B
:100FF000064627E06068102100F032FB064621E03B
:10100000A069012100F02CFB06461BE0A06902212B
:1010100000F026FB064615E0A069042100F020FB45
:1010200006460FE00FE0A069702100F019FB0646AC
:1010300008E06068042100F013FB064602E0FFE7C9
:10104000002600BF00E00026304670BD010101000F
:101050001AB143690B43436102E043698B43436127
:10106000704730B5024600200023146824F00204C3
:101070001460146844F00104146000E05B1C5468C0
:1010800004F001041CB94FF6FF74A342F6D1546872
:1010900004F001040CB900206CE08C79012C04D11F
:1010A000146844F08004146003E0146824F08004A1
:1010B0001460CC79012C04D1146844F0400414600D
:1010C00003E0146824F0400414600C7A012C04D16D
:1010D000146844F02004146003E0146824F0200431
:1010E00014604C7A012C04D1146844F0100414608C
:1010F00003E0146824F0100414608C7A012C04D1ED
:10110000146844F00804146003E0146824F0080430
:101110001460CC7A012C04D1146844F004041460E7
:1011200003E0146824F0040414608C78A407CD78DC
:1011300044EA05640D7944EA05444D7944EA0554CE
:101140000D886D1E2C43D461146824F001041460D2
:10115000002300E05B1C546804F001041CB14FF64E
:10116000FF74A342F6D1546804F001040CB10020CE
:1011700000E0012030BD10B500F5D87303EB01137A
:101180001B6803F004031372137A53B900F5D87384
:1011900003EB01131B6840F2FF7404EA535313601E
:1011A00009E000F5D87303EB01131B686FF060448E
:1011B00004EAD303536000F5D87303EB01131B68F3
:1011C00003F00203537200F5D87303EB01135B685D
:1011D00003F00F03937200F5D87303EB01135B6800
:1011E0001B0AD37400F5D87303EB01139B68D37209
:1011F00000F5D87303EB01139B681C0A147300F508
:10120000D87303EB01139B681C0C547300F5D8735F
:1012100003EB01139B681B0E937300F5D87303EB6C
:101220000113DB68D37300F5D87303EB0113DB689C
:101230001C0A147400F5D87303EB0113DB681C0C53
:10124000547400F5D87303EB0113DB681B0E937421
:1012500021B9C36843F02003C36003E0036943F08E
:101260002003036110BD00218171C17101724172BF
:101270008172C1728170C1700321017102214171BB
:1012800001210180704710B502460020936803F0E9
:101290008063B3F1806F00D110E0936803F00063C6
:1012A000B3F1006F01D1012008E0936803F080538F
:1012B000B3F1805F01D1022000E00420042874D043
:1012C00002F5C07303EB00131B6803F0010402F581
:1012D000C07303EB00131C600B7A7BB94B7A0C884C
:1012E00043EA445302F5C07404EB0014246823431A
:1012F00002F5C07404EB0014236010E00B7A4C6814
:1013000043EAC4034C7A234302F5C07404EB00148F
:101310002468234302F5C07404EB001423608B7A25
:1013200003F00F038B7202F5C07303EB00135B68CD
:1013300023F00F0402F5C07303EB00135C6002F5A9
:10134000C07303EB00135B688C7A234302F5C0740F
:1013500004EB001463608B7B1C064B7B44EA034464
:101360000B7B44EA0323CC7A234302F5C07404EBDD
:101370000014A3608B7C1C064B7C44EA03440B7C6A
:1013800044EA0323CC7B234302F5C07404EB00142E
:10139000E36002F5C07303EB00131B6843F0010424
:1013A00002F5C07303EB00131C6010BD10B52DEDEA
:1013B000048B5F480078042806D05D48007818B197
:1013C0005B480078022809D15A489FED5B1ADFED8F
:1013D0005A0A9FED590A00F097FC5AE054480078E9
:1013E000042849D0554890ED000AB5EEC00AF1EE48
:1013F00010FA02D1524881698847504890ED030A9B
:10140000B5EEC00AF1EE10FA02D14E488169884764
:101410004A4890ED060AB5EEC00AF1EE10FA02D184
:1014200049488169884749480121026990474348F2
:10143000D0ED060A20EE200AB0EE408A4148012194
:10144000026990473D48D0ED030A20EE200AF0EEF5
:10145000408A3B480121026990473848D0ED000A94
:1014600020EE200AB0EE409A3248B0EE481AF0EE74
:10147000680A00F049FC0CE09FED2F0A2F4880ED30
:10148000060A9FED2D0A80ED000A9FED2B0A80EDE4
:10149000030A2848B0F9000000EE100AB8EEC00AAE
:1014A0002B4880ED030A2348B0F9020000EE100A31
:1014B000B8EEC00A274880ED030A1E48B0F90400C0
:1014C00000EE100AB8EEC00A234880ED030A19485E
:1014D000B0F9060000EE100AB8EEC00A1F4880ED11
:1014E000030A1F4890ED0F0A194880ED0D0A1D48A8
:1014F00090ED0F0A174880ED0D0A1B4890ED0F0A7A
:10150000154880ED0D0A194890ED0F0A134880ED3B
:101510000D0A0F48C16C88470E48C16C88470E48B9
:10152000C16C88470D48C16C8847BDEC048B10BD69
:1015300080020020CE02002000000000540700209E
:1015400064040020D004002040040020F8030020A0
:101550003001002084010020D80100202C0200204E
:1015600088070020CC070020100800205408002025
:1015700010B504463148006840F20222811A9042B8
:1015800019D00ADC41282FD0422840D0512851D010
:10159000A0F2012000284ED108E0012910D0022934
:1015A00013D0032916D0042945D118E02146244838
:1015B00000F0DAF93FE02146224800F0D5F93AE0A0
:1015C0002146214800F0D0F935E021461F4800F0BF
:1015D000CBF930E021461E4800F0C6F92BE0214649
:1015E0001C4800F0C1F926E0E07A1B490870207B16
:1015F0004870607B8870A07BC870E07B17490870DA
:10160000207C4870607C8870A07CC87013E0E07A11
:1016100011490870207B4870607B8870A07BC8707F
:10162000E07B0E490870207C4870607C8870A07C4C
:10163000C87000E000BF00BF10BD000074070020AC
:1016400088070020CC070020100800205408002044
:10165000DC08002098080020580500205C050020C8
:101660000246002002EA01030BB1012000E0002045
:101670007047000010B5044614480078062823D2AD
:10168000DFE800F0211A160403121DE0204602F0E4
:1016900083FB204602F030FC00204FF0804148637D
:1016A00008640B4908600FE00A4800F0E3FB0BE018
:1016B000204602F0ABF807E0204602F031F9204660
:1016C00002F0DCF900E000BF00BF10BD8002002086
:1016D00034080040400700200246094B9A4201D2DC
:1016E000084801E00648103801F000531BB1064BD2
:1016F0000B40C36002E0044B0B4083607047000066
:1017000010640240006002407D0F7D0F21B102682D
:1017100042F00102026003E0026822F0010202606E
:1017200070470000016821F00101016000210160A3
:1017300041608160C1600161212141614A49884263
:1017400004D13D21484A103A91608CE04649183155
:10175000884205D14FF47461434A103A916082E0A7
:1017600041493031884205D14FF474113E4A103A54
:10177000916078E03C494831884205D14FF074616E
:10178000394A103A91606EE037496031884204D19D
:101790003649354A103AD16065E03349783188429C
:1017A00004D13349304A103AD1605CE02E4990317F
:1017B000884204D12F492C4A103AD16053E02A497B
:1017C000A831884205D14FF03D51274A103AD160E7
:1017D00049E02949884204D13D21274A083A11604D
:1017E00041E025491831884205D14FF47461224AFD
:1017F000083A116037E020493031884205D14FF472
:1018000074111D4A083A11602DE01B494831884285
:1018100005D14FF07461184A083A116023E0164967
:101820006031884204D11149134A121F11601AE035
:1018300011497831884204D10D490F4A121F1160B5
:1018400011E00D499031884204D10A490A4A121F19
:10185000116008E00849A831884204D14FF03D5199
:10186000054A121F11607047106002403D000020C1
:10187000400F002000003D2010640240014600207F
:101880000A6802F001020AB1012000E0002070475E
:1018900010B500220268134B1A40CC680B68234332
:1018A0004C6923438C692343CC6923430C6A23434B
:1018B0004C6A23438C6A23434C6B23438C6B234336
:1018C0001A430260426922F00702D1E90B34234334
:1018D0001A4342610B6943604B6883608B68C36045
:1018E00010BD00003F801CF0416070470021016086
:1018F00041608160C160016141618161C1610162DA
:1019000041628162C16201634163816370477047D4
:1019100010B5022000F01CF850B1022000F012F8BF
:10192000022000F009F801200249087000F05AF97D
:1019300010BD00001200002001490860704700003F
:10194000143C01400149086070470000143C01400C
:1019500001460020034A12680A400AB1012000E053
:1019600000207047143C014070B500220023046839
:1019700044600C7BCD7A44EA052404600468456821
:10198000641BC460C4682D4DAC4207DA846B641CD0
:101990008463C46804F50054C4610EE0C46841F671
:1019A0004C55AC4207DD846B641E8463C468A4F5A7
:1019B0000054C46101E0C468C4610568846B05EB30
:1019C0004434846004688569641B00EE104AB8EEF4
:1019D000C00ADFED1B0A20EE200A9FED1A1AC0EEA6
:1019E000010A846B4FF4B4756C4300EE104AB8EEF4
:1019F000C00A30EE800A80ED100AC669047D651CBD
:101A0000057500F1200545F82460047D062C01D100
:101A100000240475002205E000F1200454F822405F
:101A20002344521C062AF7DB062493FBF4F400EE51
:101A3000104AB8EEC00A80ED0F0A70BDB4E2FFFF95
:101A40000000B4430000004610B540F6184022499B
:101A50008861B2EE060A214880ED000A9FED200A57
:101A600080ED010A9FED1E0A80ED020AB2EE0A0A1D
:101A70001C4880ED000A9FED1A0A80ED010A9FEDD7
:101A8000180A80ED020A184801210269904712489D
:101A9000D0ED100AF1EE600A20EE200A0F4880ED2A
:101AA0000D0A124890ED000A0C4880ED030AC16C43
:101AB00088470A4890ED100AB1EE400A094880EDC7
:101AC000030A0B4890ED000AB1EE400A054880ED8C
:101AD0000D0AC16C884710BDDC080020880000207A
:101AE00000000000DC000020D8020020840200205A
:101AF0005C050020F0B50A4600210023002400BF49
:101B00003DE0012505FA01F3156805EA03049C424E
:101B100034D105684F000326BE40B54305601579F2
:101B20004E00B5400668354305601579012D02D099
:101B30001579022D16D185684F000326BE40B543A6
:101B4000856055794E00B5408668354385604568A7
:101B500001268E40B5434560456896798E40B6B201
:101B600035434560C5684F000326BE40B543C56098
:101B7000D5794E00B540C6683543C560491C10296B
:101B8000BFD3F0BDF0B5002300244D07ED0E02FADF
:101B900005F3CE1000F1200555F826504E07F70E3C
:101BA0000F26BE40B543CF1000F1200646F827505F
:101BB000CE1000F1200555F8265045EA0304CE105A
:101BC00000F1200545F82640F0BD024600201369CB
:101BD0000B400BB1012000E00020704741837047AB
:101BE00001837047284890ED000A284880ED000ADC
:101BF000274890ED000A244880ED000A90ED000A85
:101C00002248D0ED000A30EE600ADFED220AB4EE81
:101C1000E00AF1EE10FA05DB1F480068401E1E497D
:101C2000086013E0184890ED000A1848D0ED000A4B
:101C300030EE600ADFED190AB4EEE00AF1EE10FAB8
:101C400004D815480068401C134908601248006811
:101C50004FF4B471484300EE100AB8EEC00A0A48C7
:101C6000D0ED000A30EE200A0D4880ED000A084849
:101C700090ED010A0B4880ED000A054890ED020A3C
:101C8000094880ED000A70476400002070000020C1
:101C9000200700200000A543600000200000A5C32D
:101CA0007C000020800000208400002030B5034626
:101CB00013B94FF6FF7030BD09E013F8014B82EA0B
:101CC0000400C0B2054D35F8100080EA2222080059
:101CD000A1F10101F1D11046EDE7000052420008E8
:101CE00030B5034605E013F8010B80EA020404480E
:101CF000025D0800A1F10101F5D1104630BD0000E0
:101D00005141000800BFFEE70FB570EE602A72EE89
:101D1000812ACDED002A70EE202A72EE812ACDEDC7
:101D2000012AF1EE402A72EEA02A72EE812ACDED50
:101D3000022AF1EE402A72EEE02A72EE812ACDEDFF
:101D4000032A0021DFED492AB0EE622A36E06A4616
:101D500002EB8102D2ED002AF5EEC02AF1EE10FA74
:101D600005DD6A4602EB8102D2ED002A06E06A46F2
:101D700002EB8102D2ED002AF1EE622AF4EEC22AD1
:101D8000F1EE10FA18DD6A4602EB8102D2ED002A6C
:101D9000F5EEC02AF1EE10FA05DD6A4602EB81028B
:101DA000D2ED002A06E06A4602EB8102D2ED002A5B
:101DB000F1EE622AB0EE622A4A1CD1B20429C6DBD7
:101DC000DFED2B2AB4EEE22AF1EE10FA2CDDDFED86
:101DD000282AC2EE821ADDED002A62EEA12AFDEE6B
:101DE000E22A12EE902A12B20280DDED012A62EEA2
:101DF000A12AFDEEE22A12EE902A12B24280DDED17
:101E0000022A62EEA12AFDEEE22A12EE902A12B216
:101E10008280DDED032A62EEA12AFDEEE22A12EEB7
:101E2000902A12B2C2801FE0DDED002AFDEEE22A08
:101E300012EE902A12B20280DDED012AFDEEE22AB6
:101E400012EE902A12B24280DDED022AFDEEE22A65
:101E500012EE902A12B28280DDED032AFDEEE22A14
:101E600012EE902A12B2C2800FBD000000000000E6
:101E70000000484310B50446207A03287CD1607ADC
:101E800003287AD10020F7498870F7498870F7490C
:101E90008870F7498870F7498870F7498870B4F9F5
:101EA000060010F5A57F03DA0020F449887007E0EA
:101EB000B4F90600B0F5A57F02DD0020F049887076
:101EC000EE48807818B9E088EC49088002E00020EC
:101ED000EA490880EA48807818B9E088E84908802B
:101EE00002E00020E6490880E448B0F90000B0F5BF
:101EF000A57F22DD4FF4C3704FF08041486302217B
:101F0000E048FFF76BFEE048C07960B9DB48C07875
:101F100020B10020D949C870012088700421D94817
:101F2000FFF75CFE09E0D848C07930B10421D548FC
:101F3000FFF756FE0120D149C870D148B0F9000022
:101F400010F5A57F24DA4FF4C3704FF08041486349
:101F50000221CC48FFF742FECC48C07970B9C8488E
:101F6000C07820B10020C649C870012088700421C3
:101F7000C448FFF735FE0BE00AE24CE1C348C079E4
:101F800030B10421BF48FFF729FE0120BC49C870C9
:101F9000BB48B0F90000B0F5A57F05DAB848B0F944
:101FA000000010F5A57F0BDCB448B0F90000B0F5D7
:101FB000A57F09DAB148B0F9000010F5A57F03DD6F
:101FC00000204FF080414863B4F9000010F5A57F70
:101FD00003DA0020AE49887007E0B4F90000B0F5DC
:101FE000A57F02DD0020AB498870A948807818B928
:101FF0002088A749088002E00020A5490880A5485C
:10200000807818B92088A349088002E00020A149FF
:1020100008809F48B0F90000B0F5A57F22DD4FF49D
:10202000C3704FF08041086420219B48FFF7D6FD24
:102030009A48C07960B99648C07820B10020944988
:10204000C8700120887040219348FFF7C7FD09E060
:102050009248C07930B140218F48FFF7C1FD01207F
:102060008B49C8708B48B0F9000010F5A57F22DAC3
:102070004FF4C3704FF08041086420218648FFF779
:10208000ADFD8748C07960B98248C07820B1002092
:102090008049C8700120887040217F48FFF7A0FD6B
:1020A00009E07F48C07930B140217B48FFF796FDB9
:1020B00001207849C8707748B0F90000B0F5A57FD5
:1020C00005DA7448B0F9000010F5A57F0BDC704804
:1020D000B0F90000B0F5A57F09DA6D48B0F900004D
:1020E00010F5A57F03DD00204FF080410864B4F9AE
:1020F000020010F5A57F03DA00206A49887007E026
:10210000B4F90200B0F5A57F02DD002066498870B1
:102110006448807818B960886249088002E000202D
:10212000604908806048807818B960885E490880F6
:1021300002E000205C4908805A48B0F90000B0F580
:10214000A57F23DD4FF4C3705849086049145848EF
:10215000FFF744FD5748C07968B95248C07820B1AC
:1021600000205049C870012088704FF480415048C9
:10217000FFF734FD0AE04F48C07938B14FF4804191
:102180004B48FFF72DFD01204649C8704648B0F97D
:10219000000010F5A57F23DA4FF4C37043490860AF
:1021A00049144348FFF71AFD4348C07968B93E48CF
:1021B000C07820B100203C49C870012088704FF4DD
:1021C00080413B48FFF70CFD0AE03B48C07938B13D
:1021D0004FF480413648FFF701FD01203249C870B5
:1021E0003148B0F90000B0F5A57F05DA2E48B0F906
:1021F000000010F5A57F0BDC2A48B0F90000B0F50F
:10220000A57F08DA2748B0F9000010F5A57F02DDA8
:10221000002026490860607A012878D10020114901
:102220008870114988701149887002211548FFF79C
:10223000D5FC20211848FFF7D1FC4FF400511C4871
:10224000FFF7CCFC1048C079C0BB09488078B0BB10
:102250004FF4C3704FF08041486304210948FFF7F1
:10226000BDFC39E0C0020020C4020020C8020020EA
:10227000B4020020B8020020BC0200209C02002012
:10228000A002002000000240680500207405002024
:10229000A4020020A80200200020024080050020A7
:1022A0008C050020AC020020B00200203408004061
:1022B000000C024098050020A405002005E0FFE77F
:1022C00000204FF08041486306E004213748FFF7C3
:1022D00087FC0120364988703648C07978B936487D
:1022E000807840B94FF4C370344908600914344809
:1022F000FFF774FC0BE000203049086007E04FF462
:1023000080412F48FFF76CFC01202B498870607AD0
:1023100002284AD10020264988702A498870264917
:10232000887002212148FFF759FC20212648FFF739
:1023300055FC4FF400512248FFF750FC2348C07968
:1023400088B92348807848B94FF4C3704FF0804172
:10235000486304211548FFF743FC0BE000204FF0D1
:102360008041486306E004211048FFF737FC012054
:10237000174988701748C07978B91748807840B9EC
:102380004FF4C3700D49086009140D48FFF728FC8D
:102390000BE000200949086007E04FF4804108483D
:1023A000FFF71CFC01200C49887010BD00000240A2
:1023B000B402002098050020BC0200203408004030
:1023C000000C0240B80200200020024074050020EA
:1023D000C0020020A4050020C802002000BFFEE7C4
:1023E0007047000070B5002100230F22C4781CB391
:1023F000174C246804F4E064C4F5E064C4F30721D6
:10240000C1F10404E3B20A4144789C40E1B284780B
:10241000144021430C07210E0E4C057861550478B9
:1024200004F01F050124AC4005786D11AD0005F1E5
:10243000E025C5F8004109E0047804F01F050124F7
:10244000AC40054D0678761145F8264070BD000079
:102450000CED00E000E400E080E100E0024901430F
:10246000024A1160704700000000FA050CED00E020
:10247000704700009FED0C0A80ED070A9FED0A0AE5
:1024800080ED080A9FED080A80ED090A9FED060A13
:1024900080ED100A9FED040A80ED110A9FED020AFB
:1024A00080ED120A704700000000000000B50146F0
:1024B00091ED030AD1ED0D0A30EE600A81ED0A0AB2
:1024C00091ED000AD1ED0A0A20EE200A81ED070AFB
:1024D00091ED080AD1ED010A91ED0A1A00EE810A88
:1024E00081ED080A91ED0A0AD1ED0B0A30EE600A7F
:1024F000D1ED020A20EE200A81ED090AD1ED040A8D
:10250000B0EE600A01F1200001F01EF891ED070A1B
:10251000D1ED080A30EE200AD1ED090A30EE200A8A
:1025200081ED100AD1ED050AB0EE600A01F140001C
:1025300001F00AF891ED110A81ED120A91ED100AED
:1025400081ED110A91ED0B0A81ED0C0A91ED0A0A59
:1025500081ED0B0A91ED0E0A81ED0F0A91ED0D0A46
:1025600081ED0E0A00BD000029B1064A126802433F
:10257000044B1A6004E0034A12688243014B1A605C
:10258000704700003038024029B1064A1268024301
:10259000044B1A6004E0034A12688243014B1A603C
:1025A000704700004038024029B1064A12680243D1
:1025B000044B1A6004E0034A12688243014B1A601C
:1025C000704700002038024029B1064A12680243D1
:1025D000044B1A6004E0034A12688243014B1A60FC
:1025E000704700004438024029B1064A126802438D
:1025F000044B1A6004E0034A12688243014B1A60DC
:102600007047000024380240F0B500210022002469
:10261000022500260223324F3F6807F00C0121B14A
:10262000042905D0082937D105E02E4F076036E090
:102630002D4F076033E02A4F3F1F3F68C7F3805696
:10264000274F3F1F3F6807F03F036EB1264FB7FB90
:10265000F3F7DFF88CC0ACF1040CDCF800C0CCF36D
:10266000881C07FB0CF40CE01E4FB7FBF3F7DFF8F8
:1026700070C0ACF1040CDCF800C0CCF3881C07FB84
:102680000CF4174F3F1F3F68C7F301477F1C7D00C5
:10269000B4FBF5F7076002E0124F076000BF00BF10
:1026A0000F4F3F6807F0F0010909104F7A5C076887
:1026B000D74047600A4F3F6807F4E051890A0B4F43
:1026C0007A5C4768D7408760054F3F6807F46041F0
:1026D000490B064F7A5C4768D740C760F0BD0000E1
:1026E000083802400024F400001BB7003C0500201D
:1026F000704710B50446A1882068FFF766FA58B9FC
:10270000A079042802DD0120E07108E0A079401CD6
:10271000A0710020E07102E00020A071E071E0797A
:1027200010BD00000CB500200190009041480068E9
:1027300040F480303F49086000BF3E48006800F424
:10274000003000900198401C0190009818B9019841
:10275000B0F5A04FF1D13748006800F4003010B157
:102760000120009001E0002000900098012860D135
:1027700030484030006840F080502E4940310860B9
:102780002D48006840F440402B4908602948083033
:1027900000682849083108600846006840F4004095
:1027A00008600846006840F4A05008602348091FEC
:1027B0000860081F006840F08070091F086000BFB3
:1027C0001C48006800F000700028F9D01A48006822
:1027D00040F480301849086000BF1748406800F492
:1027E00080300028F9D01448006840F400301249C5
:1027F000086000BF1048406800F400300028F9D09D
:1028000040F205700E4908600A480830006820F060
:1028100003000849083108600846006840F00200DB
:10282000086000BF03480830006800F00C0008286A
:10283000F8D10CBD00380240007000400C54400735
:10284000003C024010B515480078072810D1144804
:10285000002102699047C8201249086010480068AA
:10286000782805D10E488169884706200B490870F1
:102870000A480078062810D10B48002102699047C9
:10288000A0200849086008480068782805D1064853
:102890008169884707200149087010BD9002002017
:1028A000D403002040040140B003002010B51B48B1
:1028B000FFF71FFF1A49097808431949087019489A
:1028C000FFF717FF1649097841EA400014490870DC
:1028D0001548FFF70EFF1249097841EA80001049B8
:1028E00008701248FFF705FF0D49097841EAC0005A
:1028F0000B4908700E48FFF7FCFE0949097841EAC8
:102900000010074908700B48FFF7F3FE04490978E7
:1029100041EA40100249087010BD0000680500201F
:10292000B005002074050020800500208C050020E3
:1029300098050020A40500207047000010B5154838
:10294000006840F47000134908601348006840F0C4
:1029500001001149086000200F49083108600E4845
:1029600000680E4908400C4908600D48091D0860C0
:10297000081F006820F48020091F08600020064915
:102980000C310860FFF7CEFE4FF00060014980393E
:10299000086010BD88ED00E000380240FFFFF6FE41
:1029A0001030002410B50121074800F005F948B1A6
:1029B0000121054800F019F80121034800F012F840
:1029C00000F008FE10BD00000010004021B1028898
:1029D00042F08002028004E002884FF67F731A40C2
:1029E00002807047CA4302827047CA43028270471E
:1029F00021B1028842F00102028004E002884FF611
:102A0000FE731A400280704731B1B0F8442042F49E
:102A10000042A0F8442005E0B0F84420C2F30E02C2
:102A2000A0F844207047000010B504465548844281
:102A300008D101210846FFF7D7FD00210120FFF74B
:102A4000D3FD9DE0B4F1804F08D101210846FFF786
:102A5000ABFD00210120FFF7A7FD91E04A48844229
:102A600008D101210220FFF79FFD00210220FFF77E
:102A70009BFD85E04548844208D101210420FFF7F1
:102A800093FD00210420FFF78FFD79E04048844248
:102A900008D101210820FFF787FD00210820FFF75A
:102AA00083FD6DE03B48844208D101211020FFF7EF
:102AB0007BFD00211020FFF777FD61E0364884425E
:102AC00008D101212020FFF76FFD00212020FFF712
:102AD0006BFD55E03148844208D101210220FFF707
:102AE00083FD00210220FFF77FFD49E02C4884424E
:102AF00009D101210804FFF777FD00214FF4803050
:102B0000FFF772FD3CE02748844209D101214804C7
:102B1000FFF76AFD00214FF40030FFF765FD2FE05D
:102B20002148844209D101218804FFF75DFD00217D
:102B30004FF48020FFF758FD22E01C48844208D162
:102B400001214020FFF730FD00214020FFF72CFD40
:102B500016E01748844208D101218020FFF724FDA8
:102B600000218020FFF720FD0AE01248844207D1AF
:102B700001218015FFF718FD0021A015FFF714FDB6
:102B800010BD0000000001400004004000080040AB
:102B9000000C004000100040001400400004014000
:102BA000004001400044014000480140001800403E
:102BB000001C00400020004030B5024600200023E9
:102BC0000024158A05EA0103958905EA010413B179
:102BD0000CB1012000E0002030BD1AB183890B4305
:102BE000838102E083898B438381704770B5002421
:102BF00000220023058C4FF6FE7635400584028CBA
:102C00008388048B4FF68F752C40B51E2C400D88A1
:102C10002C43751E2A408D892A434D882A43104D26
:102C2000A84202D00F4DA84213D14FF6F7752A40A3
:102C3000CD892A434FF6FB752A408D882A434FF6EB
:102C4000FF652B404FF6FF552B400D8A2B434D8AD5
:102C50002B43838004838D684563028470BD00002C
:102C600000000140000401400A460021018B4FF69C
:102C7000F7731940114301837047000070B50024B9
:102C800000220023058C4FF6EF7635400584028C38
:102C90008388048B48F6FF752C404FF6FF452C4087
:102CA0000D884FF6FF7606EA05252C434FF6DF75B3
:102CB0002A408D8906EA05152A434D8806EA05153E
:102CC0002A43154DA84202D0144DA8421DD14FF6FB
:102CD0007F752A40CD894FF6FF7606EA05152A430F
:102CE0004FF6BF752A408D8806EA05152A434FF630
:102CF000FF352B404FF2FF752B400D8A06EA850504
:102D00002B434D8A06EA85052B43838004838D6817
:102D10008563028470BD0000000001400004014092
:102D20000A460021018B4FF2FF7319404FF6FF73E3
:102D300003EA0223194301837047000070B50024A1
:102D400000220023058C4FF6FF6635400584028C77
:102D50008388848B4FF68F752C404FF6FC752C4082
:102D60000D882C434FF6FF552A408D894FF6FF768C
:102D700006EA05252A434D8806EA05252A43154D0E
:102D8000A84202D0144DA8421DD14FF2FF752A402F
:102D9000CD894FF6FF7606EA05252A434FF6FF3523
:102DA0002A408D8806EA05252A434EF6FF752B40FA
:102DB0004DF6FF752B400D8A06EA05152B434D8A0B
:102DC00006EA05152B43838084838D68C5630284DE
:102DD00070BD000000000140000401400A460021CF
:102DE000818B4FF6F77319401143818370470000C0
:102DF00070B5002200230024058C4EF6FF76354086
:102E00000584038C8488828B48F6FF752A404FF630
:102E1000FF452A400D884FF6FF7606EA05252A432E
:102E20004DF6FF752B408D8906EA05352B434D88FD
:102E300006EA05352B430A4DA84202D0094DA842A7
:102E400008D14BF6FF752C400D8A4FF6FF7606EA47
:102E500085152C43848082838D680564038470BD4E
:102E600000000140000401400A460021818B4FF21E
:102E7000FF7319404FF6FF7303EA0223194381835E
:102E80007047000000220288184B98420ED0184B61
:102E900098420BD0B0F1804F08D0164B984205D025
:102EA000154B984202D0154B984204D14FF68F73C0
:102EB0001A404B881A43124B984207D0114B984244
:102EC00004D04FF6FF431A400B891A4302804B6827
:102ED000C3620B880385054B984202D0044B98428D
:102EE00001D18B7A03860123838270470000014061
:102EF000000401400004004000080040000C0040B5
:102F000000100040001400404FF0FF3141600021EC
:102F100001800181418081727047000010B501215C
:102F20000648FFF765FD012211460448FFF755FEEC
:102F300001210248FFF756FD10BD000000100040BF
:102F400010B540F22441164800F0EAF9012825D1D5
:102F500040F22441124800F046F9114800F09AFA74
:102F600000211048FEF7D2FB0E48001D0068012822
:102F700002D10D4800F0B2FB0C490A48FEF7ACFB49
:102F800000BF0848FEF77AFC0028FAD11321054853
:102F9000FEF7AAFC01210348FEF7B8FB10BD0000B4
:102FA0000010014040640240400700200000301043
:102FB00010B540F224417D4800F0B2F901287DD1DE
:102FC00040F22441794800F00EF9784800F062FAA6
:102FD00000217748FEF79AFB75482838C06A002818
:102FE0006DD17448407901286AD10421714800F0FC
:102FF00085FA002864D06F4840780C306D4A92788A
:1030000040EA02216B4800F059FA00287BD0694859
:10301000807A6949C8706748407A88706548007A44
:1030200048706448C07908700846006863490860C1
:103030006048C07A5F49097B40EA01205F49888087
:103040005C4890F829005C49C8705A4890F82800FC
:103050008870584890F827004870564890F8260025
:103060000870084600685549C1F823005148007CA3
:103070005149C8704F48C07B88704E48807B48706B
:103080004C48407B0870084600684C49C1F806006F
:103090004848007D4849C8704648C07C887045480B
:1030A000807C48704348407C08700846006843496B
:1030B000C1F80A000846D0F8060002E075E062E0B8
:1030C00021E000EE100ADFED3E0A80EE801A9FED4F
:1030D0003D0A21EE000ABCEEC00A10EE100A3A4981
:1030E00008803648D0F80A0000EE100A3348D0F8BD
:1030F000060000EE900A20EE200A10EE100A2F497A
:10310000C1F80E003FE02B48407902280AD1294837
:1031100040780C30274A927840EA0221254800F096
:10312000CDF980BB2348407903282CD12148407831
:103130000C30204A927840EA02211E4800F0BEF985
:1031400008B31C48807A1C49C8701A48407A8870B5
:103150001848007A48701748C07908700846006817
:103160001A4908601348807B1349C8701148407B96
:1031700088701048007B48700E48C07A0870084676
:1031800000681249486012490948FEF7A5FA00BFD5
:103190000748FEF773FB0028FAD12C210448FEF7FC
:1031A000A3FB01210248FEF7B1FA10BD0048004020
:1031B000286002402009002054050020B6090020A4
:1031C0000000964200002F454C050020DD0900203C
:1031D000000C001001F40072B2F5007F00D100BFB6
:1031E000CA430280704710B50022002340F66A14DB
:1031F000A14200D100BF0A1201249440A3B2DC43D3
:10320000048010BD21B1828942F40052828104E021
:1032100082894DF6FF731A40828170471AB1838A02
:103220000B43838202E0838A8B43838270470000D2
:1032300010B504463248844208D101211020FFF71E
:10324000D3F900211020FFF7CFF957E02D48844231
:1032500009D101214804FFF7A7F900214FF40030FC
:10326000FFF7A2F94AE02848844209D101218804E5
:10327000FFF79AF900214FF48020FFF795F93DE020
:103280002248844209D10121C804FFF78DF90021A9
:103290004FF40020FFF788F930E01D48844209D13F
:1032A00001210805FFF780F900214FF48010FFF796
:1032B0007BF923E01748844208D101212020FFF741
:1032C00093F900212020FFF78FF917E0124884427C
:1032D00009D101218807FFF767F900214FF08040ED
:1032E000FFF762F90AE00D48844207D10121400549
:1032F000FFF75AF900216005FFF756F910BD0000ED
:10330000001001400044004000480040004C0040D4
:10331000005000400014014000780040007C004054
:1033200070B50246002400230025002040F66A16EE
:10333000B14200D100BFC1F3421501F01F030126C5
:1033400006FA03F3012D02D19689334006E0022DDF
:1033500002D1168A334001E0968A33400C120126CE
:1033600006FA04F41688344013B10CB1012000E0D1
:10337000002070BDF0B50346002400260025002083
:1033800040F66A17B94200D100BF1846C1F3421493
:1033900001F01F06012707FA06F5012C01D10C30B8
:1033A00004E0022C01D1103000E014301AB107689B
:1033B0002F43076002E00768AF430760F0BD0000DD
:1033C0002DE9FF4705460E460024A14600BFA04652
:1033D000B08900B100BF2C8A24F44054F088044323
:1033E0002C82AC8941F20C608443B0883189084357
:1033F000718908430443AC81AC8A24F44074B089D9
:103400000443AC826846FFF7FFF82048854202D0AB
:103410001F48854202D1DDF80C9001E0DDF80890EC
:10342000A88900F4004040B109EBC90000EB091085
:1034300031684900B0FBF1F707E009EBC90000EB88
:10344000091031688900B0FBF1F76420B7FBF0F098
:1034500004012009642101FB1078A88900F40040D0
:1034600040B1322000EBC800B0FBF1F000F00700E3
:10347000044308E0322000EB08106421B0FBF1F0B7
:1034800000F00F0004432C81BDE8FF8700100140CD
:103490000014014001468888C0F3080070474FF4CB
:1034A0001651016000218180C18001810C21418180
:1034B00000218181704700BFFEE7000070B505461E
:1034C0000C4600260DB1022C01D8002070BDA11EB3
:1034D000094802882846FEF7E9FB0646F1B2A01E1D
:1034E000285C814206D1601E285CB0EB162F01D10A
:1034F0000120EBE70020E9E75005002070B5054604
:103500000C4600260DB1022C01D8002070BD611EB2
:10351000FF222846FEF7E4FB0646601E285CB04208
:1035200001D10120F2E70020F0E702E008C8121FF5
:1035300008C1002AFAD170477047002001E001C19C
:10354000121F002AFBD17047D0ED000AF4EEC00A2A
:10355000F1EE10FA01DD80ED000AD0ED000AB1EEC7
:10356000401AF4EEC10AF1EE10FA03D2F1EE400A6D
:10357000C0ED000A70472DE9F04186B080460C4648
:1035800015461E460C9F08208DF80E0000208DF871
:103590000C008DF80D004FF400700190200A8DF89A
:1035A0000F008DF81040290A8DF811108DF8125077
:1035B000310A8DF813108DF81460390A8DF8151042
:1035C0008DF8167001A94046FDF75DFE06B0BDE816
:1035D000F081000008B537480088401C3549088054
:1035E00035480078032803D03348007801280DD1EE
:1035F00030480088B0F5FA7F08DB3048006880F476
:1036000080402E49086000202A490880FFF74EF9C3
:103610002B48FEF72FF82749088800EBD071491096
:10362000A0EB410169B9FEF70FFA264890ED100AA8
:10363000BDEEC00A10EE100A41420022224800F0FE
:103640001BF91C490888C11700EB91718910A0EB88
:10365000810101BBFDF7AAFE1C4890ED100ABDEEEA
:10366000C00A8DED000A1A4890ED100ABDEEC00A9E
:1036700010EE103A174890ED100ABDEEC00A10EE99
:10368000102A154890ED100ABDEEC00A10EE101A6F
:103690000D48FFF770FF07480088032190FBF1F207
:1036A00001FB120020B9084800F00FF900F084FC7B
:1036B00008BD0000CC02002080020020141402404B
:1036C00040070020DC000020006400402C020020A5
:1036D000D8010020840100203001002048490978E9
:1036E000474A527841EA0221C1F30A010180444964
:1036F0004978C910424A927841EA4211C1F30A015D
:1037000041803F49897889113D4AD27841EA820156
:103710003B4A127941EA8221C1F30A01818038498A
:1037200009794910364A527941EAC211C1F30A01B6
:10373000C1800188C9B14188B9B18188A9B1C18866
:1037400099B10188A1F5806109B201804188A1F594
:10375000806109B241808188A1F5806109B28180D0
:10376000C188A1F5806109B2C18025494979C1F3B9
:1037700001110172224949798909417220498979E7
:103780001F4AD27941EA022109B241811C49097AD2
:103790001B4A527A41EA02210AB282811849897A87
:1037A000174AD27A41EA02210AB2C28114490A7B3D
:1037B00002744A7B4274897B114AD27B41EA02211E
:1037C000418210490968B1F5FA6F14DB017A0129C9
:1037D00003D103210C4A117010E0017A032903D1AF
:1037E0000521094A117009E0017A022906D1012157
:1037F000054A117002E00421034A1170704700006D
:103800002C070020D80200208002002000214182E5
:1038100000220274427441818281C2810180418010
:103820008180C180704730B50446002504E04FF424
:103830007A7000F004F86D1CA542F8D330BD014643
:10384000C1EBC10202EB42024FF0E0235A610022B9
:103850009A6101221A6100BF4FF0E022106900F066
:1038600001021AB100F48032002AF5D000224FF094
:10387000E0231A619A61704770B586B006460C461F
:10388000154608208DF80E0000208DF80C008DF8EC
:103890000D0040F2FF100190200A8DF80F008DF806
:1038A0001040290A8DF811108DF8125000218DF862
:1038B00013108DF814108DF815108DF8161001A93D
:1038C0003046FDF7E0FC06B070BD10B586B004468A
:1038D00008208DF80E0000208DF80C008DF80D00EA
:1038E0004020019001208DF80F0002218DF810106A
:1038F00003218DF8111004218DF8121005218DF887
:10390000131006218DF8141007218DF815100821C9
:103910008DF8161001A92046FDF7B5FC06B010BDC4
:103920004E4991ED000AB0F90C1000EE901AF8EE35
:10393000E00AF1EE600A9FED4A1A00EE810A47495B
:1039400081ED000AB0F90010B1F5A57F12DAB0F9E7
:10395000001011F5A57F0DDDB0F9001000EE101A72
:10396000B8EEC00ADFED3F0A20EE200A3E4981EDA5
:10397000030A0CE0B0F9001000EE101AB8EEC00A0D
:10398000DFED3A0A20EE200A374981ED030AB0F94B
:103990000210B1F5A57F12DAB0F9021011F5A57F7A
:1039A0000DDDB0F9021000EE101AB8EEC00ADFED1E
:1039B000300A20EE200A2C4981ED000A0CE0B0F913
:1039C000021000EE101AB8EEC00ADFED2A0A20EE4F
:1039D000200A254981ED000AB0F90A10192912DAE6
:1039E000B0F90A1011F1190F0DDDB0F90A1000EE4F
:1039F000101AB8EEC00ADFED200A20EE200A1A499C
:103A000081ED060A0CE0B0F90A1000EE101AB8EECB
:103A1000C00AF7EE000A20EE200A134981ED060ADB
:103A20000E4991ED000AFBEE040AB4EEE00AF1EE55
:103A300010FA04D8BBEE040A81ED000A0DE0074934
:103A400091ED000AF3EE040AB4EEE00AF1EE10FA8A
:103A500003DBB3EE040A81ED000A70478402002004
:103A60000AD7233BCDCC4C3E540700209A99993E6F
:103A70008FC2F53CCDCCCC3D3333333F017C3A4A49
:103A80001170417C394A11703949097802290ED1E7
:103A90000421384A11703849097800295BD133492B
:103AA0000978012957D10521314A117053E0304975
:103AB000097805291BD12D490978012905D12F49FC
:103AC0000988491C2D4A118002E000212B4A1180EF
:103AD0002A490988B1F5FA7F3DDB0121284A118086
:103AE0000021264A11800121214A117033E020492A
:103AF000097801292FD120490978012905D11B49CD
:103B0000097811B900211E4A118018490978012944
:103B100008D11B49098829B918490988491C174A3D
:103B2000118002E00021154A118014490988B1F57D
:103B3000FA7F05DB0021114A118002210C4A117025
:103B400009490978012903D103210A4A117002E0C9
:103B500000210C4A1170044909780B4A117003497D
:103B60000978054A117070479202002094020020E3
:103B70008D0200208E020020930200209602002079
:103B8000980200208C0200209102002030B585B000
:103B900005460C4608208DF80A0000208DF8080024
:103BA0008DF809005020009034B101208DF80B00F1
:103BB00001218DF80C1005E000208DF80B0000218C
:103BC0008DF80C1002218DF80D1006218DF80E10C5
:103BD00004218DF80F1005218DF8101006218DF8A5
:103BE000111005218DF8121069462846FDF74BFB90
:103BF00005B030BD00F094FA00BFFEE70146D1E900
:103C00000002904201DD012070470020FCE7000027
:103C10004268002A1EDD0268521C0260D0E90023BF
:103C20009A4201DD4268026001290CD190ED000A40
:103C3000F8EEC00A90ED010AB8EEC00A80EE801AD4
:103C400080ED021A03E09FED050A80ED020A90ED77
:103C5000020A70479FED010AFBE700000000000028
:103C600010B536484FF4FA61C269904734484FF4B2
:103C7000FA61C269904733483221C269904732489D
:103C80003221C26990473148C821C2699047304803
:103C9000C821C26990472F487821C26990472E48B1
:103CA0007821C26990472D486421C26990472C4809
:103CB0004FF4FA71C26990472A486421C26990475B
:103CC00029484FF4FA71C269904728486421C269B3
:103CD000904727486421C269904726486421C269F9
:103CE000904725486421C269904724486421C269ED
:103CF00090471E48816988471D48816988471D484B
:103D0000816988471C48816988471C4881698847C0
:103D1000124881698847134881698847104881693A
:103D20008847114881698847044881698847044861
:103D30008169884703488169884710BDD8020020FF
:103D4000FC02002020030020440300206803002020
:103D50008C030020B0030020D40300206404002062
:103D600088040020D0040020F4040020F803002080
:103D70001C04002040040020AC0400201805002092
:103D800000220260416070470021016070470160BD
:103D900070474160704700004E4991ED000AB0F94C
:103DA000061000EE901AF8EEE00A9FED4B1A00EEB6
:103DB000810A484981ED000AB0F90010B1F5A57FEC
:103DC00012DAB0F9001011F5A57F0DDDB0F9001081
:103DD00000EE101AB8EEC00ADFED400A20EE200A0D
:103DE0003F4981ED030A0CE0B0F9001000EE101A13
:103DF000B8EEC00ADFED3B0A20EE200A384981ED1B
:103E0000030AB0F90210B1F5A57F12DAB0F9021079
:103E100011F5A57F0DDDB0F9021000EE101AB8EE15
:103E2000C00ADFED310A20EE200A2D4981ED000A9B
:103E30000CE0B0F9021000EE101AB8EEC00ADFED87
:103E40002B0A20EE200A264981ED000AB0F9041061
:103E5000B1F5A57F12DAB0F9041011F5A57F0DDDDB
:103E6000B0F9041000EE101AB8EEC00ADFED200A17
:103E700020EE200A1A4981ED060A0CE0B0F9041080
:103E800000EE101AB8EEC00ADFED1A0A20EE200A82
:103E9000134981ED060A0F4991ED000AFBEE040A71
:103EA000B4EEE00AF1EE10FA04D8BBEE040A81ED9C
:103EB000000A0DE0074991ED000AF3EE040AB4EEA2
:103EC000E00AF1EE10FA03DBB3EE040A81ED000A1A
:103ED00070470000840200206F128339CDCC4C3E25
:103EE000540700209A99993E8FC2F53CCDCCCC3D29
:103EF000295C0F3D295C8F3D10B5044626480078AB
:103F000026490870607A24490870254800780228FC
:103F10000AD10846007821490978401A801C18B94E
:103F200001201F4908700DE01D480078012809D1C3
:103F30001948007819490978401A801C10B90220E4
:103F40001749087016480078012810D113480078E6
:103F500003280CD1114800780F490978401A01282C
:103F600005D103200F49087001200F4908700C4843
:103F7000007801280FD10D48407A03280BD1042086
:103F80000849087000200849087009488169884775
:103F900008488169884710BD9B0200209A020020D2
:103FA0008D0200208E0200208C020020400700209D
:103FB000680300208C03002010B54B4800780128CE
:103FC00048D1FEF73FFC01214848FFF7DFFD484894
:103FD000012102699047DFED470A9FED471A41EE44
:103FE000000ABCEEE00A10EE100A4449086040489E
:103FF000012102699047DFED3F0A9FED3F1A41EE34
:10400000000ABCEEE00A10EE100A3C49091D0860E7
:104010003B48012102699047DFED360A9FED391ACE
:1040200041EE000ABCEEE00A10EE100A36490860C4
:104030003348012102699047DFED2E0A9FED311AC6
:1040400041EE000ABCEEE00A10EE100A2E49091DEE
:10405000086017E024480078022813D10021234883
:10406000FFF794FD4FF47A7024490860091D086039
:1040700025490860091D08601D488169884704209A
:104080002249087021480078032814D132202049A1
:1040900008602048816988471F48002102699047CD
:1040A0001D480068C8281ED11A4881698847042025
:1040B0001649087017E015480078042813D18220AB
:1040C000134908601348002102699047134800789B
:1040D00048B110480068C82805D10F488169884751
:1040E00003200A49087010BD8D02002000640040C2
:1040F0002003002000007A4400009643341800405A
:104100004403002000008C43340C00408E02002049
:104110003C0401408C030020680300208C02002036
:1041200010B54FF47A70FFF77EFBFFF799FDFCF7AF
:1041300003FCFCF7C0FBFCF797F9FCF71DFCFCF750
:104140008FF8FCF727F9FCF771FDFEF7E7FE10BDCD
:10415000FF005EBCE2613FDD83C29C7E20A3FD1FA9
:10416000419DC3217FFCA2401E5F01E3BD3E6082F2
:10417000DC237D9FC1421CFEA0E1BF5D0380DE3CCD
:1041800062BEE0025CDF81633D7C22C09E1D43A1D4
:10419000FF4618FAA427799BC584DA3866E5BB592F
:1041A00007DB856739BAE406581947A5FB7826C4AA
:1041B0009A653BD987045AB8E6A7F91B45C6987A91
:1041C00024F8A6441A99C7257B3A6486D85B05E78C
:1041D000B98CD2306EEDB3510F4E10F2AC2F7193FB
:1041E000CD114FADF3702ECC92D38D6F31B2EC0E5A
:1041F00050AFF1134DCE90722C6D33D18F0C52B065
:10420000EE326C8ED0530DEFB1F0AE4C1291CF2D3B
:1042100073CA947628ABF517490856B4EA6937D5BE
:104220008B5709EBB536688AD495CB2977F4AA4821
:1042300016E9B7550B88D6346A2B7597C94A14F618
:10424000A8742AC896154BA9F7B6E80A54D7896B03
:1042500035000000891112239B322446AD57366584
:10426000BF74488CC19D5AAFD3BE6CCAE5DB7EE9F2
:10427000F7F88110080193331A22A5562C47B77519
:104280003E64C99C408DDBBF52AEEDDA64CBFFF9D2
:1042900076E802218B30100299132667AF763444FA
:1042A000BD554AADC3BC588ED19F6EEBE7FA7CC8B2
:1042B000F5D983310A2091121803A7772E66B554D9
:1042C0003C45CBBD42ACD99E508FEFFB66EAFDD892
:1042D00074C904428D5316619F702004A9153227BA
:1042E000BB364CCEC5DF5EEDD7FC6888E1997AAB72
:1042F000F3BA85520C4397711E60A1142805B33799
:104300003A26CDDE44CFDFFD56ECE9986089FBBB51
:1043100072AA06638F7214409D512225AB34300679
:10432000B9174EEFC7FE5CCCD5DD6AA9E3B8788A31
:10433000F19B87730E6295501C41A3352A24B11658
:104340003807CFFF46EEDDDC54CDEBB962A8F99A11
:10435000708B088481951AA793B62CC2A5D33EE131
:10436000B7F04008C919522BDB3A644EED5F766D09
:10437000FF7C899400859BB712A6ADD224C3BFF100
:1043800036E0C1184809D33B5A2AE55E6C4FF77DE9
:104390007E6C0AA583B4188691972EE3A7F23CC0E1
:1043A000B5D14229CB38500AD91B666FEF7E744CC9
:1043B000FD5D8BB502A499961087AFF326E2BDD0C0
:1043C00034C1C3394A28D11A580BE77F6E6EF55CA9
:1043D0007C4D0CC685D71EE597F42880A1913AA3A1
:1043E000B3B2444ACD5B5669DF78600CE91D722F89
:1043F000FB3E8DD604C79FF516E4A9902081BBB380
:1044000032A2C55A4C4BD7795E68E11C680DF33F68
:104410007A2E0EE787F61CC495D52AA1A3B0388260
:10442000B193466BCF7A5448DD59622DEB3C700E48
:10443000F91F8FF706E69DD414C5ABB122A0B9923F
:104440003083C77B4E6AD5585C49E33D6A2CF11E28
:10445000780F00007444000800000020B40500003C
:104460000802000800450008B40500203C080000D0
:104470003A35000861122EB491FFF40382803F2385
:104480007A441A4804013213AD241B087504091339
:10449000540C3C20994554435C4355CDCCCC3E391B
:1044A000500AFDFA54093854C204055302040407A3
:1044B00013813D1408113C1B088F081A89041A93B4
:1044C000042BFD3BD009FD2409FD240942242D01C4
:1044D0000203040425060708090517E803FFFF1473
:1044E0002002408202840240107C08024017190C0E
:1044F00082019A0418190C791804000606060000B7
:04000005080001AD41
:00000001FF
