:020000040800F2
:100000009006002045010008811100080B1100082E
:100010007D11000825060008B91600080000000040
:10002000000000000000000000000000F9120008BD
:10003000D30C00080000000009120008E9140008B1
:100040005F0100085F0100085F0100085F01000810
:100050005F0100085F0100085F0100085F01000800
:100060005F0100085F0100085F0100085F010008F0
:100070005F0100085F0100085F0100085F010008E0
:100080005F0100085F0100085F0100085F010008D0
:10009000891600085F0100085F0100085F01000881
:1000A0005F0100085F0100085F0100085F010008B0
:1000B0005F0100085F0100085F0100085F010008A0
:1000C0005F0100085F0100085F0100085F01000890
:1000D0005F0100085F0100085F0100085F01000880
:1000E0005F0100085F0100085F0100085F01000870
:1000F0005F0100085F0100085F0100085F01000860
:100100005F0100085F0100085F0100085F0100084F
:100110005F0100085F0100084D1500085F0100083D
:100120005F0100085F0100085F0100085F0100082F
:10013000DFF80CD000F04EF900480047DD1700084A
:10014000900600200648804706480047FEE7FEE785
:10015000FEE7FEE7FEE7FEE7FEE7FEE7FEE7FEE777
:10016000ED14000831010008F0B480EA0102D40F58
:100170004200B2EB410F02D20246084611464A0045
:1001800042D0C30DDDB2C1F3C752AD1A202D35DA0E
:10019000C1F3160141F4000204B15242C5F1200638
:1001A00002FA06F12A411044B3EBD05F23D0C4B168
:1001B000012DA0EBC35009DCF0BC4FF0004202EA75
:1001C000C352DBB200F5000000F0D5B8400000F1EA
:1001D000807000EBC350A0F1807040EAD1704900FC
:1001E00009E0490841EAC071A0EBC35000F50000E6
:1001F000400800EBC350F0BC00F0B4B861420122EB
:1002000002EB4101001BF6E7F0BC704781F00041B2
:10021000AAE780F00040A7E780EA010210B502F0EB
:100220000043400022D04A001FD0010E01EB1261B2
:10023000C0F35600C2F3560240F4000042F400023C
:10024000A0FB022000047F39140400D0401C50EAB7
:10025000124001D44000491EC2B20C0604EBD0107B
:10026000401C4008802A02D003E0002010BD20F08E
:100270000100002900DA0020184310BD30B480EAE4
:10028000010202F0004530F0004221F0004013D09E
:1002900090B1C30DD40DC2F31601C0F31600E41AD9
:1002A00041F4000140F400027D34914201D3641C0A
:1002B00000E04900002C02DA30BC002070474FF407
:1002C00000000023914201D3891A034340084FEAFA
:1002D0004101F7D151B1914202D14FF0004105E007
:1002E00002D24FF0010101E06FF0010103EBC450B5
:1002F000284430BC00F036B8C10F80EAE0700844F2
:10030000CA079623002100F036B800F0004220F022
:100310000040C10DC0F3160040F400007F2901DA4F
:1003200000207047962903DCC1F19601C84001E026
:1003300096398840002AF4D040427047002801DBFB
:10034000C0F10040002901DBC1F10041814270474A
:10035000002801DBC0F10040002901DBC1F10041B0
:10036000884270470029A8BF7047401C490008BF59
:1003700020F00100704710B4B0FA80FC00FA0CF0D5
:1003800050EA010404BF10BC704749B1CCF120040D
:1003900021FA04F411FA0CF118BF0121214308439A
:1003A000A3EB0C01CB1D4FEA00614FEA102042BFC6
:1003B000002010BC704700EBC35010440029A4BFBC
:1003C00010BC7047401C490008BF20F0010010BC61
:1003D00070470000064C074D06E0E06840F001035E
:1003E00094E8070098471034AC42F6D3FFF7A4FE18
:1003F000CC180008EC18000870B58C1810F8015BD8
:1004000015F0070301D110F8013B2A1106D110F8AD
:10041000012B03E010F8016B01F8016B5B1EF9D1B1
:100420002B0705D40023521E0DD401F8013BFAE737
:1004300010F8013BCB1A921C03E013F8015B01F8A2
:10044000015B521EF9D5A142D8D3002070BD000037
:1004500000B587B00121480600F01EFF234800F0D8
:1004600037F904A800F06FFB00208DF817008DF815
:1004700018008DF819008DF81A008DF8160001206B
:100480008DF81B0000208DF8130002208DF8140059
:1004900004208DF81500ADF8100000208DF8120032
:1004A00004A9124800F04DFA01208DF80D0000203B
:1004B000ADF80800ADF80000ADF80200ADF804009A
:1004C000ADF806008DF80B008DF80A0001208DF8BC
:1004D0000C0000208DF80A00684600F015F9012292
:1004E0000221024800F024FA07B000BD0064004079
:1004F00008B50121492000F0EFFE18208DF8030017
:1005000003208DF802004FF40070ADF8000069463A
:10051000114800F01DFD48208DF8030003208DF8E0
:1005200002004FF48070ADF8000069460A4800F000
:100530000FFD01214FF4EA1000F096FD48208DF8E0
:10054000030003208DF802000520ADF80000694685
:10055000024800F0FDFC08BD000C014000180140FD
:1005600008B54FF4A06000F045FE14208DF800009F
:1005700001208DF8030000208DF8010003208DF884
:100580000200684600F0FEFD36208DF800000120D4
:100590008DF803008DF8010000208DF802006846F8
:1005A00000F0F0FD08BD000010B50648016D884759
:1005B0000548016D88470548016D88470448016D6D
:1005C000884710BD30000020D800002084000020A3
:1005D0002C0100200EB50121102000F05DFE6846C0
:1005E00001F048F80020ADF80600ADF802004FF425
:1005F0007A70ADF804004720ADF80000694608485D
:1006000000F0E6FF0121064800F0BCFF0122114680
:10061000034800F0D4FF0121014800F0ADFF0EBDFA
:100620000010004000BFFEE7B1F5007F3AD00FDCBC
:10063000202928D006DC01291CD004291DD0082936
:1006400040D11DE0402921D0B1F5807F3AD126E08C
:10065000B1F5004F31D006DCB1F5806F25D0B1F592
:10066000006F2FD124E0B1F5803F12D0B1F5003FEB
:1006700028D111E0154A826025E00822C26022E0FC
:100680001022C2601FE0082202611CE010220261F9
:1006900019E00822426016E01022426013E00422B2
:1006A000426010E0042242600DE0042242600AE051
:1006B000002282610422426005E00022826104225D
:1006C000426000E000BF00BF704700000101010070
:1006D00010B504460B48844209D10121480600F0B8
:1006E000EBFD00214FF0007000F0E6FD08E0012175
:1006F000880600F0E1FD00214FF0806000F0DCFD95
:1007000010BD00000064004010B50021837A012272
:1007100002FA03F13D4A126842F001023B4B1A60B3
:100720003A4A1C3212688A43384B1C331A60027BE7
:10073000CAB9364A0C3212688A43344B0C331A60F9
:100740004288C38842EA0343304A4032847A42F8FE
:1007500034300288838842EA03432C4A4032847A48
:1007600002EBC4025360027B012A19D1274A0C32E2
:1007700012680A43254B0C331A604288038842EA08
:100780000343224A4032847A42F83430C288838854
:1007900042EA03431D4A4032847A02EBC4025360AA
:1007A000C27A3AB9194A121D12688A43174B1B1DA7
:1007B0001A6006E0154A121D12680A43134B1B1DEE
:1007C0001A60028932B9114A143212688A430F4BF7
:1007D00014331A600289012A06D10C4A14321268B5
:1007E0000A430A4B14331A60427B012A06D1074A96
:1007F0001C3212680A43054B1C331A60034A126804
:1008000022F00102014B1A6010BD0000006600409A
:1008100070B504460D46002660692840002871D056
:10082000B5F5807F5CD010DC082D35D006DC012DBD
:1008300020D0022D24D0042D72D127E0102D31D0EC
:10084000202D35D0402D6BD138E0B5F5004F60D06C
:1008500009DCB5F5007F49D0B5F5806F4CD0B5F512
:10086000006F5DD14FE0B5F5803F2DD0B5F5003F6D
:1008700056D12FE0A0682D4900F022FA064651E03B
:10088000E068032100F01CFA06464BE0E06808210E
:1008900000F016FA064645E0E068102100F010FA74
:1008A00006463FE02069032100F00AFA064639E0D7
:1008B0002069082100F004FA064633E0206910217F
:1008C00000F0FEF906462DE06068082100F0F8F916
:1008D000064627E06068102100F0F2F9064621E0A4
:1008E000A069012100F0ECF906461BE0A069022195
:1008F00000F0E6F9064615E0A069042100F0E0F9F1
:1009000006460FE00FE0A069702100F0D9F9064615
:1009100008E06068042100F0D3F9064602E0FFE732
:10092000002600BF00E00026304670BD0101010036
:100930001AB143690B43436102E043698B4343614E
:10094000704730B5024600200023146824F00204EA
:100950001460146844F00104146000E05B1C5468E7
:1009600004F001041CB94FF6FF74A342F6D1546899
:1009700004F001040CB900206CE08C79012C04D146
:10098000146844F08004146003E0146824F08004C8
:100990001460CC79012C04D1146844F04004146034
:1009A00003E0146824F0400414600C7A012C04D194
:1009B000146844F02004146003E0146824F0200458
:1009C00014604C7A012C04D1146844F010041460B3
:1009D00003E0146824F0100414608C7A012C04D114
:1009E000146844F00804146003E0146824F0080458
:1009F0001460CC7A012C04D1146844F0040414600F
:100A000003E0146824F0040414608C78A407CD7803
:100A100044EA05640D7944EA05444D7944EA0554F5
:100A20000D886D1E2C43D461146824F001041460F9
:100A3000002300E05B1C546804F001041CB14FF675
:100A4000FF74A342F6D1546804F001040CB10020F5
:100A500000E0012030BD10B500F5D87303EB0113A1
:100A60001B6803F004031372137A53B900F5D873AB
:100A700003EB01131B6840F2FF7404EA5353136045
:100A800009E000F5D87303EB01131B686FF06044B5
:100A900004EAD303536000F5D87303EB01131B681A
:100AA00003F00203537200F5D87303EB01135B6884
:100AB00003F00F03937200F5D87303EB01135B6827
:100AC0001B0AD37400F5D87303EB01139B68D37230
:100AD00000F5D87303EB01139B681C0A147300F52F
:100AE000D87303EB01139B681C0C547300F5D87387
:100AF00003EB01139B681B0E937300F5D87303EB94
:100B00000113DB68D37300F5D87303EB0113DB68C3
:100B10001C0A147400F5D87303EB0113DB681C0C7A
:100B2000547400F5D87303EB0113DB681B0E937448
:100B300021B9C36843F02003C36003E0036943F0B5
:100B40002003036110BD00218171C17101724172E6
:100B50008172C1728170C1700321017102214171E2
:100B600001210180704710B502460020936803F010
:100B70008063B3F1806F00D110E0936803F00063ED
:100B8000B3F1006F01D1012008E0936803F08053B6
:100B9000B3F1805F01D1022000E00420042874D06A
:100BA00002F5C07303EB00131B6803F0010402F5A8
:100BB000C07303EB00131C600B7A7BB94B7A0C8873
:100BC00043EA445302F5C07404EB00142468234341
:100BD00002F5C07404EB0014236010E00B7A4C683B
:100BE00043EAC4034C7A234302F5C07404EB0014B7
:100BF0002468234302F5C07404EB001423608B7A4D
:100C000003F00F038B7202F5C07303EB00135B68F4
:100C100023F00F0402F5C07303EB00135C6002F5D0
:100C2000C07303EB00135B688C7A234302F5C07436
:100C300004EB001463608B7B1C064B7B44EA03448B
:100C40000B7B44EA0323CC7A234302F5C07404EB04
:100C50000014A3608B7C1C064B7C44EA03440B7C91
:100C600044EA0323CC7B234302F5C07404EB001455
:100C7000E36002F5C07303EB00131B6843F001044B
:100C800002F5C07303EB00131C6010BD10B50446E1
:100C900009480068A0F2012030B1052809D1214699
:100CA000064800F017F804E02146044800F012F866
:100CB00000BF00BF10BD0000F0010020480200206E
:100CC0000246002002EA01030BB1012000E00020EF
:100CD000704770472DE9F05F04460D460026002757
:100CE00020686060287BE97A40EA01202060206863
:100CF0006168401AE060E0682C49884207DAA06B1E
:100D0000401CA063E06800F50050E0610EE0E06880
:100D100041F64C51884207DDA06B401EA063E0689D
:100D2000A0F50050E06101E0E068E0612168A06B9F
:100D300001EB4030A060A16B4FF4B47201FB02F0F4
:100D4000FFF7DAFA82462168A269881AFFF7D4FA17
:100D500083461749FFF760FA81464FF08C41FFF751
:100D60008DFA80465146FFF7FFF92064E269207D45
:100D7000411C217504F1200141F82020207D062826
:100D800001D100202075002605E004F1200050F874
:100D900026000744761C062EF7DB062097FBF0F8AA
:100DA0004046FFF7A9FAE063BDE8F09FB4E2FFFF19
:100DB0000000B4432DE9F0414FF48260534988614B
:100DC00053480068534908605348006848605348D6
:100DD00000688860524800685249086052480068BC
:100DE00048605248006888605148007802282CD139
:100DF0005048474908600020474908604749086053
:100E00004FF07E5046490860002047490860474936
:100E1000086049480169884705463C4880683B4965
:100E20008969401A4FF4B47100FB01F4E11704EB37
:100E3000D1414813FFF760FA06462946FFF7ECF95F
:100E4000344948630020C86051E0394800780128DF
:100E50004DD138482E49086000202F4908602F499D
:100E6000086036482E49086000202F4908602F4945
:100E7000086033480068B0F57A7F11D131480168C5
:100E800031480068FFF75AFA0AD02F4801682F4806
:100E90000068FFF769F92D4908602948816988478A
:100EA0002748016988470746264801683846FFF702
:100EB000B3F905461548806814498969401A4FF40A
:100EC000B47100FB01F4E11704EBD1414813FFF7C3
:100ED00013FA07461D4801683846FFF745F90646EC
:100EE0002946FFF741F90B4948630020C8600948CB
:100EF000C16C88470748006C0A49C8600348C06B4A
:100F000048630846C16C8847BDE8F081480200206C
:100F10000000002030000020040000200800002015
:100F20000C0000208400002010000020140000208D
:100F30002900002000002041800100200000A04086
:100F4000A4010020180000201C0000202000002028
:100F50002DE9F04102460025002600200023002450
:100F6000002791F803C00CF00F0591F803C00CF0B6
:100F7000100CBCF1000F03D091F802C04CEA05053B
:100F800091F800C0BCF1000F31D0146800202BE0B4
:100F90004FF0010C0CFA00F3B1F800C00CEA0306A4
:100FA0009E4220D183004FF00F0C0CFA03F7BC4394
:100FB00005FA03FC4CEA040491F803C0BCF1280FC5
:100FC00006D14FF0010C0CFA00FCC2F814C00AE084
:100FD00091F803C0BCF1480F05D14FF0010C0CFA99
:100FE00000FCC2F810C0401C0828D1D31460B1F82E
:100FF00000C0BCF1FF0F34DD546800202EE000F18A
:10100000080C4FF0010808FA0CF3B1F800C00CEA24
:1010100003069E4221D183004FF00F0C0CFA03F718
:10102000BC4305FA03FC4CEA040491F803C0BCF18C
:10103000280F05D100F1080C08FA0CF8C2F814804A
:1010400091F803C0BCF1480F07D100F1080C4FF034
:10105000010808FA0CF8C2F81080401C0828CED30A
:101060005460BDE8F0810000F0B50A46002300247A
:101070000021002500F00046B6F1004F02D11D4EC0
:10108000F16901E01B4E7168C0F3034583B200F4BF
:101090004016B6F5401F08D121F07061154E7668F4
:1010A00026F07066134F7E6012E000F48016B6F5ED
:1010B000801F06D1032606FA05F4A14341F07061B2
:1010C00006E0460D360103FA06F6B14341F07061C1
:1010D00022B1460D360103FA06F6314300F0004610
:1010E000B6F1004F02D1034EF16101E0014E716093
:1010F000F0BD0000000001400246002093680B4054
:101100000BB1012000E00020704700BFFEE70000A7
:1011100010B504211648FFF7EFFF68B915480078AD
:10112000042803DD01201349487009E011480078C4
:10113000401C1049087003E000200E4908704870F8
:1011400001210B48FFF7D8FF68B90B480078042845
:1011500003DD01200849487009E007480078401C79
:101160000549087003E0002003490870487010BD6D
:10117000001801402B0000202D00002000BFFEE7DA
:101180007047000070B5002100230F22C47804B31B
:10119000154C246804F4E064C4F5E064210AC1F14C
:1011A0000403CA40447804FA03F1847814402143CC
:1011B00009010E4C0678A155047804F01F0501249E
:1011C000AC4005786D11AD0005F1E025C5F8004192
:1011D00009E0047804F01F050124AC40044D0678B2
:1011E000761145F8264070BD0CED00E000E400E00B
:1011F00080E100E002490143024A116070470000AB
:101200000000FA050CED00E070470021C1610162A9
:1012100041620164002242648264704770B50446F2
:10122000616BE068FEF7F2FFA062A16A2068FEF73A
:10123000F3FFE061A16A6068FEF7EEFF0546216AF0
:10124000FEF792FF2062D4E90A01FEF7DFFF0546B0
:10125000A168FEF7E1FF606204F12000216900F05F
:101260003CFAD4E90701FEF77FFF0546616AFEF705
:101270007BFF206404F14000616900F02EFA616C8C
:10128000A164216C6164E16A2163A16AE162A16BDE
:10129000E163616BA16370BD29B1064AD269024363
:1012A000044BDA6104E0034AD2698243014BDA61FC
:1012B000704700000010024029B1064A126902433B
:1012C000044B1A6104E0034A12698243014B1A611C
:1012D000704700000010024029B1064A926902439B
:1012E000044B9A6104E0034A92698243014B9A617C
:1012F0007047000000100240704710B500F002F87F
:1013000010BD00000CB5002001900090334800682B
:1013100040F480303149086000BF3048006800F474
:10132000003000900198401C0190009818B9019875
:10133000B0F5A06FF1D12948006800F4003010B179
:101340000120009001E0002000900098012843D186
:101350002348006840F010002149086008460068F2
:1013600020F0030008600846006840F002000860B2
:101370001A4840681949486008464068486008466D
:10138000406840F4806048600846406820F47C1063
:1013900048600846406840F4E81048600846006825
:1013A00040F08070086000BF0C48006800F00070DA
:1013B0000028F9D00948406820F003000749486038
:1013C0000846406840F00200486000BF034840689B
:1013D00000F00C000828F9D10CBD000000100240FC
:1013E00000200240354800783549087035480068CB
:1013F0003549086035484078A0B93548407888B903
:101400002E480078012803D02C480078022803D108
:101410004FF47A702F4908802848007810B90020CE
:101420002D4908702548007820B1002027494870D0
:10143000274948702148007803280AD127480068C6
:10144000B0F57A7F05D100201C490870012022499F
:1014500008701A480078022811D11E480088401CE4
:101460001C49088008460088B0F57A7F07DD002017
:1014700008800320114908701948124908600F4874
:101480000078012807D115480068B0F57A7F02D1AD
:1014900002200A4908700D48407870B10C48407825
:1014A00058B10648007840B90B48007828B90D4873
:1014B0000449086001200149087070472400002099
:1014C00025000020180000201C0000202B00002018
:1014D0002D0000202600002028000020A40100206C
:1014E000000034C3000034437047000010B51348B7
:1014F000006840F001001149086008464068104942
:1015000008400E494860084600680E4908400B49EB
:1015100008600846006820F480200860084640689B
:1015200020F4FE0048604FF41F008860FFF7E5FEDE
:101530004FF000600449086010BD00000010024038
:101540000000FFF8FFFFF6FE08ED00E010B50121F6
:10155000074800F023F850B10121054800F00FF8CA
:101560000121034800F008F801200249087010BD6D
:1015700000100040EC010020CA4302827047CA43B9
:101580000282704721B1028842F00102028004E029
:1015900002884FF6FE731A400280704730B502464B
:1015A000002000230024158A05EA0103958905EA35
:1015B000010413B10CB1012000E0002030BD1AB1CC
:1015C00083890B43838102E083898B438381704746
:1015D000002202881D4B98420ED01D4B98420BD022
:1015E000B0F1804F08D01B4B984205D01A4B98425F
:1015F00002D01A4B984204D14FF68F731A404B8891
:101600001A43174B984207D0164B984204D04FF616
:10161000FF431A40CB881A4302808B8883850B884E
:1016200003850A4B98420BD0094B984208D00E4BC9
:10163000984205D00D4B984202D00D4B984201D1F3
:101640000B7A03860123838270470000002C01403F
:10165000003401400004004000080040000C00403D
:1016600000100040001400400040014000440140D0
:10167000004801404FF6FF71818000210180C18048
:10168000418001727047000010B502210848FFF741
:10169000BFF858B102210648FEF7C6FF054A0021EF
:1016A0000348FFF7D8F90348FFF7F0FA10BD000030
:1016B00000640040F001002000BFFEE702E008C81F
:1016C000121F08C1002AFAD170477047002001E0BC
:1016D00001C1121F002AFBD1704770B504460D46A8
:1016E00029462068FEF734FE00D2256085F00046CA
:1016F00030462168FEF72CFE02D285F000402060C3
:1017000070BD000010B51048016988470F48007887
:10171000012803D1FFF7FCFCFFF764FE0A480068CC
:1017200041F27071884202D1012008490870FFF728
:1017300041FB0749086CFEF7E8FD044621460548D1
:1017400000F00AF810BD00008001002029000020F0
:10175000840000200064004030B585B005460C468A
:1017600008208DF80A0000208DF808008DF8090087
:101770001948007801280ED140F2FF100090002097
:101780008DF80B0000218DF80C10210A8DF80D103A
:10179000E1B28DF80E101048007868B94FF400706F
:1017A0000090200A8DF80B00E1B28DF80C1000219A
:1017B0008DF80D108DF80E1000218DF80F108DF89A
:1017C00010108DF811108DF8121069462846FFF799
:1017D000CAF905B030BD00002A00002000F060F812
:1017E00007E00448007820B1FFF78CFF0020014992
:1017F0000870F6E7EC0100200146D1E900029042B2
:1018000001DD012070470020FCE770B504466068E8
:10181000002816DD2068401C2060D4E900018842C1
:1018200001DD606820606068FEF766FD054620689F
:10183000FEF762FD06462946FEF720FDA060A0687F
:1018400070BD0020FCE7000010B50C4841F270713B
:10185000C26990470A484FF47A71C26990470948B3
:101860004FF4FA61C2699047044881698847044887
:101870008169884703488169884710BD800100203D
:10188000A4010020C80100200022026041607047CE
:10189000002101607047016070474160704700009F
:1018A00010B5012008490870FFF7CEFFFEF77CFE57
:1018B000FEF756FEFEF71CFEFEF776FEFEF7C8FDAD
:1018C000FEF788FE10BD00002A000020EC1800087A
:1018D00000000020F0010000F803000820190008B3
:1018E000F0010020A0040000CC1600080129021815
:1018F00002237A441AFA040132131D121B080B0446
:101900000913540CEE209945541B89181419041A14
:1019100097041A91041A9B040B4CF9172400000039
:0400000508000131BD
:00000001FF
